:020000040000FA
:100000000C9490000C9450130C9429130C94B80089
:100010000C94B8000C94B8000C94F51D0C94B80026
:100020000C94B8000C94B8000C94B8000C94B80070
:100030000C94B8000C94B8000C94B8000C94B80060
:100040000C94DF120C94B8000C949D130C9477134D
:100050000C94B8000C94B8000C94B8000C94B80040
:100060000C94B8000C94B800036EDB363D9A999955
:10007000993DABAAAA2A3E000000803F072C7AA532
:10008000BA6CC590DA3B9365FC8BBC53F810FD3C11
:100090005692834DBD879D3AB63DCBC9BF5BBE73BB
:1000A000DA0FC93F05A84CCDB2D44EB93836A902F3
:1000B0000C50B9918688083CA6AAAA2ABE00000066
:1000C000803F0000000023002600290000000000FF
:1000D000240027002A00000000080002010000039D
:1000E00004070000000000000000010204081020C6
:1000F00040800102040810200102040810200000C2
:100100000000250028002B00040404040404040457
:10011000020202020202030303030303F81DAD1FE0
:1001200011241FBECFEFD8E0DEBFCDBF12E0A0E0AC
:10013000B1E0E8E4F9E402C005900D92A433B10700
:10014000D9F724E0A4E3B2E001C01D92AB35B207B9
:10015000E1F710E0CFE8D0E004C02197FE010E9453
:100160005C23CE38D107C9F70E94A91E0C949724AE
:100170000C940000E9E9F3E0A089B18982E08C9356
:10018000A485B5851C92A685B78580E18C93108ED9
:10019000A489B58986E08C93A289B3898C9180610A
:1001A0008C93A289B3898C9188608C93A289B3893E
:1001B0008C9180688C930288F389E02D80818F7DFB
:1001C000808308958F929F92AF92BF92CF92DF92D9
:1001D000EF92FF92CF934B01AA24BB24C82DC52ECA
:1001E000D62EE72EFF24BC2DA42F209149042223D4
:1001F00061F0829E40011124C92D2C9D60011124C3
:10020000BD2D249FF0011124AF2FE0914F04E09009
:100210004A04F0904B0430914C04E31323C09C013A
:10022000220F331F820F931F8E0D9F1DE0914C04F0
:10023000E80FF92FF11DC083E0914D04E80FF92F6D
:10024000F11DB08320914E04820F911DFC01A0830B
:10025000CF91FF90EF90DF90CF90BF90AF909F90A5
:100260008F900895880F991F880F991F8E0D9F1DDD
:10027000472F552766277727222349F030E0249F10
:100280007001259FF00C349FF00C11244F2DE80FC6
:10029000F92FF11D4083CACF833081F028F48130DB
:1002A00099F08230A9F008958730A9F08830C9F01C
:1002B0008430B1F4809180008F7D03C080918000F4
:1002C0008F7780938000089584B58F7784BD0895DB
:1002D00084B58F7DFBCF8091B0008F778093B00085
:1002E00008958091B0008F7DF9CF1F93CF93DF9356
:1002F000282F30E0F901EA52FF4F8491F901E651CD
:10030000FF4FD491F901E85FFE4FC491CC23A9F0CF
:10031000162F81110E944C01EC2FF0E0EE0FFF1F11
:10032000E250FF4FA591B4918FB7F894EC91111161
:1003300008C0D095DE23DC938FBFDF91CF911F9152
:100340000895DE2BF8CFCF93DF9390E0FC01E651C8
:10035000FF4F2491885F9E4FFC0184918823C9F050
:1003600090E0880F991FFC01E453FF4FA591B491D1
:10037000FC01E250FF4FC591D49161110DC09FB7B0
:10038000F8948C91209582238C938881282328834C
:100390009FBFDF91CF910895623051F49FB7F894D9
:1003A0003C91822F809583238C93E8812E2BEFCF75
:1003B0008FB7F894EC912E2B2C938FBFEACF8064EB
:1003C00080937C0080917A00806480937A00809191
:1003D0007A0086FDFCCF8091780090917900089595
:1003E0003FB7F8948091EB029091EC02A091ED025E
:1003F000B091EE0226B5A89B05C02F3F19F00196DB
:10040000A11DB11D3FBFBA2FA92F982F8827BC016E
:10041000CD01620F711D811D911D43E0660F771F95
:10042000881F991F4A95D1F708950F931F93CF9373
:10043000DF93CDB7DEB729970FB6F894DEBF0FBEB6
:10044000CDBF0E94F0010091500410915104209101
:10045000520430915304601B710B820B930B6C326E
:1004600071408105910568F3F8948091460490915C
:1004700047049A838983A0914A04B0914B04FD01FB
:1004800031968C91898780914204A0915404B09157
:100490005504882309F42EC11B82AB32B10509F043
:1004A00072C09BB180915604982B98879BB1809520
:1004B00089238F838F818C83898587FF02C08885FC
:1004C0008C8358856F8149853C812B8189819A81F4
:1004D0005BB9262F3BB900C046FD252F6BB900C084
:1004E0005BB9362F2BB900C045FD352F6BB900C065
:1004F0005BB9262F3BB900C044FD252F6BB900C066
:100500005BB9362F2BB900C043FD352F6BB900C046
:100510005BB9262F3BB900C042FD252F6BB900C047
:100520005BB9362F2BB900C041FD352F6BB900C028
:100530005BB9262F3BB900C040FD252F6BB9019751
:100540005BB9362F2BB9419147FD352F6BB901F6B9
:1005500049873C832B839A83898378940E94F00196
:100560006093500470935104809352049093530409
:1005700029960FB6F894DEBF0FBECDBFDF91CF91A5
:100580001F910F910895A532B10509F058C095B19A
:1005900080915604982B988795B1809589238F83F5
:1005A0008F818C83898587FF02C088858C835885DD
:1005B0006F8149853C812B8189819A8155B9262F8C
:1005C00035B900C046FD252F65B900C055B9362F95
:1005D00025B900C045FD352F65B900C055B9262F96
:1005E00035B900C044FD252F65B900C055B9362F77
:1005F00025B900C043FD352F65B900C055B9262F78
:1006000035B900C042FD252F65B900C055B9362F58
:1006100025B900C041FD352F65B900C055B9262F59
:1006200035B900C040FD252F65B9019755B9362F62
:1006300025B9419147FD352F65B901F689CF9897C6
:1006400009F08BCF98B180915604982B988798B178
:10065000809589238F838F818C83898587FF02C052
:1006600088858C8358856F8149853C812B81898160
:100670009A8158B9262F38B900C046FD252F68B990
:1006800000C058B9362F28B900C045FD352F68B9CC
:1006900000C058B9262F38B900C044FD252F68B9CD
:1006A00000C058B9362F28B900C043FD352F68B9AE
:1006B00000C058B9262F38B900C042FD252F68B9AF
:1006C00000C058B9362F28B900C041FD352F68B990
:1006D00000C058B9262F38B900C040FD252F68B991
:1006E000019758B9362F28B9419147FD352F68B980
:1006F00001F62ECF9C9180915604982B98879C915F
:10070000809589238F838F818E8388E08D835885A0
:100710006F8149853D812E8189819A815C9347FD56
:10072000252F2C93262F3A9531F0441F6C9300C04F
:1007300000C000C0F3CF6C93000038E041910197F6
:1007400069F7B0935504A093540449873D832E83E1
:1007500002CF8F929F92AF92BF92CF92DF92EF9291
:10076000FF924B015C010E94F0016B017C010E9431
:10077000F0016C197D098E099F09683E734081055F
:100780009105A8F321E0821A9108A108B10888EE2A
:10079000C80E83E0D81EE11CF11C81149104A10451
:1007A000B10429F7FF90EF90DF90CF90BF90AF900A
:1007B0009F908F9008952FB7F8946091E702709101
:1007C000E8028091E9029091EA022FBF089508950E
:1007D000AF92BF92CF92DF92EF92FF920F931F934F
:1007E000CF93DF936C017B018B01040F151FEB018D
:1007F0005E01AE18BF08C017D10759F06991D60144
:10080000ED91FC910190F081E02DC6010995892BB5
:1008100079F7C501DF91CF911F910F91FF90EF9074
:10082000DF90CF90BF90AF900895FC01538D448D21
:10083000252F30E0842F90E0821B930B541710F08B
:10084000CF96089501970895FC01918D828D981798
:1008500061F0A28DAE0FBF2FB11D5D968C91928D70
:100860009F5F9F73928F90E008958FEF9FEF0895A1
:10087000FC01918D828D981731F0828DE80FF11D6A
:10088000858D90E008958FEF9FEF0895FC01918D85
:10089000228D892F90E0805C9F4F821B91098F737E
:1008A0009927089589E993E00E94460421E0892B65
:1008B00009F420E0822F08950E94520481110C94C3
:1008C0000000089580E090E0892B11F00C945C0406
:1008D0000895FC01A48DA80FB92FB11DA35ABF4FD5
:1008E0002C91848D90E001968F739927848FA6892F
:1008F000B7892C93A089B1898C91837080648C9383
:10090000938D848D981306C00288F389E02D808131
:100910008F7D80830895EF92FF920F931F93CF9363
:10092000DF93EC0181E0888F9B8D8C8D98131AC02A
:10093000E889F989808185FF15C09FB7F894EE8911
:10094000FF896083E889F98980818370806480836E
:100950009FBF81E090E0DF91CF911F910F91FF90B9
:10096000EF900895F62E0B8D10E00F5F1F4F0F7361
:100970001127E02E8C8D8E110CC00FB607FCFACF1C
:10098000E889F989808185FFF5CFCE010E9469044D
:10099000F1CFEB8DEC0FFD2FF11DE35AFF4FF082ED
:1009A0009FB7F8940B8FEA89FB8980818062CFCF53
:1009B000CF93DF93EC01888D8823B9F0AA89BB8996
:1009C000E889F9898C9185FD03C0808186FD0DC081
:1009D0000FB607FCF7CF8C9185FFF2CF808185FFA2
:1009E000EDCFCE010E946904E9CFDF91CF91089548
:1009F00084ED8093BC008091BC0084FDFCCF1092FC
:100A0000740308958091BC0087FF76C08091B9007F
:100A1000887F883249F170F48031F1F030F4882316
:100A200009F467C08830C1F008958831E9F0803258
:100A300061F10895803409F43FC028F4803329F12E
:100A4000883331F10895803559F18835E9F18834DA
:100A500009F052C00C94F80480914F038093BB00BE
:100A600084EC8093BC000895909171038091700391
:100A70009817B0F5E091710381E08E0F80937103B8
:100A8000F0E0E05BFC4F8081E9CF80937203E2CF1E
:100A90008093720384EC8093BC00109274030895D9
:100AA000E091710381E08E0F809371038091BB0010
:100AB000F0E0E05BFC4F80839091710380917003C4
:100AC000981770F284E8CDCFE091710381E08E0F2A
:100AD000809371038091BB00F0E0E05BFC4F80836A
:100AE000809173038111B6CF81E080934E0384EA35
:100AF000D2CF10927203AECF08951F93CF93DF939E
:100B0000D0919803182FC0919703D13220F081E043
:100B100042C00E940205809174038111FACF82E0E5
:100B200080937403109373038FEF8093720310927A
:100B30007103D0937003E7E7F3E0A0E5B3E080E052
:100B4000D81333C010924F0380914F03CC0FC82BA2
:100B5000C0934F0380914E03813059F510924E039C
:100B600080914F038093BB0085EC8093BC0084ECA4
:100B70008093BC00809174038230E9F0809172030D
:100B80008F3FE1F0809172038032D1F08091720347
:100B90008033C1F084E01092760310929803109293
:100BA0007503DF91CF911F91089591919D938F5F70
:100BB000C7CF84EEDDCF0E940205DCCF80E0EBCF13
:100BC00082E0E9CF83E0E7CF613240F480917403A3
:100BD000843031F46093C90280E0089581E0089583
:100BE00082E008951092740381E080937303109261
:100BF0004E0361E082E10E94750161E083E10E94A1
:100C00007501E9EBF0E080818E7F808380818D7FAC
:100C1000808382E08093B80084E48093BC000895D0
:100C20000895E091C8028091C702E81730F4F0E01F
:100C3000E955FD4F808190E008958FEF9FEF089573
:100C40009091C8028091C7022FEF3FEF981748F4A8
:100C5000E92FF0E0E955FD4F208130E09F5F909350
:100C6000C802C90108958091C7029091C802891BEA
:100C7000990B0895CF92DF92EF92FF920F931F93FB
:100C8000CF93DF937C01CB018A012091750322234E
:100C900089F0EB016B01C40ED51ECC15DD0569F0A2
:100CA0006991D701ED91FC910190F081E02DC70190
:100CB0000995F3CF642F0E94E405C801DF91CF911D
:100CC0001F910F91FF90EF90DF90CF900895CF93F9
:100CD000DF931F92CDB7DEB769832091750322237E
:100CE000F9F020919803203258F021E030E0FC0127
:100CF0003383228390E080E00F90DF91CF910895BD
:100D000080917603E82FF0E0E958FC4F99819083B9
:100D10008F5F809376038093980381E090E0ECCF1F
:100D200061E0CE0101960E94E405F7CFCF93DF93F7
:100D3000EA0191E0909375038093970310927603F4
:100D40001092980386E394E00E946706688186E328
:100D500094E00E94670681E0DF91CF910C947D05BD
:100D600090E080E00895E091F702F091F802808130
:100D7000811107C08FEF9FEF9093E3028093E2020F
:100D80000895E091F702F091F8020580F681E02DD8
:100D90000680F781E02D82819381EECF0F931F9320
:100DA0000E94DB0300919E0210919F022091A002FD
:100DB0003091A102601B710B820B930B693271059C
:100DC0008105910530F490919D0280911101981355
:100DD00007C081E020919B0230919C02232B09F4F3
:100DE00080E01F910F9108950F931F93CF93DF938E
:100DF000F894C0918400D0918500D0939A02C0935A
:100E00009902E9EDF0E08491EDEEF0E00491EBE081
:100E1000F1E014911123A1F081110E944C01E12F06
:100E2000F0E0EE0FFF1FEE53FF4FA591B491EC9150
:100E3000E02381E090E011F490E080E0892B19F448
:100E400081E0809398020E94DB0300919E02109142
:100E50009F022091A0023091A102601B710B820BB6
:100E6000930B603171058105910540F190919D02D0
:100E700080911101981714F510928500109284004A
:100E8000109297021092960210929C0210929B026E
:100E90001092950210929D02109294020E94DB0320
:100EA00060939E0270939F028093A0029093A10290
:100EB0007894DF91CF911F910F9108952091960220
:100EC00030919702D0939702C093960280919B0233
:100ED00090919C02833091056CF180FF2BC0C21B66
:100EE000D30B23E0CC0FDD1F2A95E1F7209195026B
:100EF000C93E33E0D30724F141E050E0022E01C0A7
:100F0000440F0A94EAF730919402342B3093940200
:100F10002F5F2093950228306CF020919D02309134
:100F200011012317ACF42F5F20939D0210929502BC
:100F300010929402019690939C0280939B02AECFF4
:100F4000CC32D1402CF710929D0210929802E0CF43
:100F500010929802EBCF61E087E00E94A30160E06D
:100F600087E00C947501CF92DF92EF92FF920F937E
:100F70001F93CF93DF93EC018B016A0179010E94EB
:100F8000AB078091440490914504C817D90700F538
:100F9000A601DD0C660B770B762F652F542F4427A7
:100FA000C701FF0CAA0BBB0B842B952BA62BB72BD1
:100FB000012E000C220B330B980111270027AC01E6
:100FC000BD01402B512B622B732BCE010E94E200FE
:100FD00080914A0490914B04892B11F00E941502D4
:100FE00084E592E00197F1F7DF91CF911F910F9186
:100FF000FF90EF90DF90CF900895CF92DF92EF9225
:10100000FF9260910F0170911001072E000C880B68
:10101000990B0E943D2126ED35EE44E158E30E94F4
:101020004D2220910B0130910C0140910D01509106
:101030000E010E9493206B017C0160910901709167
:101040000A01072E000C880B990B0E943D219B0181
:10105000AC01C701B6010E94932060930501709313
:1010600006018093070190930801FF90EF90DF90B5
:10107000CF900895CF93DF931F92CDB7DEB76983EA
:10108000AE014F5F5F4F682F8BE60E9496060F9070
:10109000DF91CF910895CF93DF931F92CDB7DEB745
:1010A0006983AE014F5F5F4F682F8CE10E94960607
:1010B0000F90DF91CF91089560919002709191020D
:1010C00080919202909193020E943D21209105010E
:1010D0003091060140910701509108010E944D2274
:1010E0000E94052188279927861B970B08950F9347
:1010F0001F93CF93DF93C82F8A01D22F81E0809373
:101100007503C0939703109276031092980386E3B9
:1011100094E00E94670680E00E947D058091740340
:10112000811146C081E080937403809373039FEF25
:1011300090937203109271039D0F909370038093AC
:101140004F0380914F03CC0FC82BC0934F03809166
:101150004E03813081F510924E0380914F038093AE
:10116000BB0084EC8093BC0080917403813029F132
:10117000809171038D1710F4D0917103A0E5B3E055
:10118000E7EAF2E0C0E0CD131BC01092C802C093A2
:10119000C702D0E08091C802C817B1F086E394E09E
:1011A0000E942006F801ED0FF11D8083DF5FF2CF72
:1011B0000E940205B3CF84EED5CF0E940205D4CFA2
:1011C0008D918193CF5FDFCF8D2FDF91CF911F91D5
:1011D0000F910895CF93DF931F92CDB7DEB7198299
:1011E00021E0AE014F5F5F4F6FE28BE60E94770810
:1011F00089818F710F90DF91CF9108950F931F9385
:10120000CF93DF9300D000D000D0CDB7DEB78C01F4
:1012100026E0AE014F5F5F4F61E88CE10E947708E6
:10122000898190E0982F88272A81820F911DF801EB
:10123000918380838B8190E0982F88272C81820F67
:10124000911D938382838D8190E0982F88272E8132
:10125000820F911D9583848326960FB6F894DEBF86
:101260000FBECDBFDF91CF911F910F910895CF9306
:10127000DF931F92CDB7DEB7198221E0AE014F5F39
:101280005F4F60E08CE10E94770889818F730F9037
:10129000DF91CF91089530E020E050E040E070E031
:1012A00060E084E090E00E94B30730E020E050E08E
:1012B00040E070E060E085E090E00C94B307FC0152
:1012C00001900020E9F73197AF01481B590BBC0191
:1012D00089E993E00C94E803CF93DF930E945F09C0
:1012E000EC0180E491E00E945F098C0F9D1FDF916B
:1012F000CF910895259A2D9A2FE788E391E0215008
:1013000080409040E1F700C000001D9AF5CF00E05A
:1013100010E08091A40281110CC0809126038230DC
:1013200010F00E94AB150115110599F30E945C04A1
:10133000F0CF0FB6F8940F92E0910703F0910803F5
:10134000C681D781CE0102960E941D1480914D0363
:10135000815080934D038091A40281508093A40218
:101360000F900FBE8F89988D0E94ED18CE010E94BC
:10137000ED18CFCFCF93DF93CDB7DEB768970FB619
:10138000F894DEBF0FBECDBF83E491E00E946C09EC
:1013900020918502309186023A83298330937E0220
:1013A00020937D0280918102909182029C838B83A5
:1013B00090937A0280937902209183023091840283
:1013C0003E832D8330937602209375020E94F001B4
:1013D0004B015C01C0907102D0907202E0907302E8
:1013E000F0907402DC01CB018C199D09AE09BF0994
:1013F000883C9105A105B10568F4C60188539F4F4B
:10140000881999098330910528F0880F991F04974E
:101410000197F1F760E084E00E94750182E00E948C
:10142000DF0198878F8381E00E94DF013C0183E028
:101430000E94DF012C0161E088E00E9475018CE8C8
:1014400091E00197F1F782E00E94DF018C012F818A
:101450003885021B130B109386020093850281E0EE
:101460000E94DF018619970998878F8390938402E1
:101470008093830283E00E94DF01841995093C0177
:1014800034E1631A7108709282026092810260E016
:1014900088E00E947501C501B4010E943B214B0107
:1014A0005C01C701B6010E943B219B01AC01C50153
:1014B000B4010E9406206B017C01C0920101D09210
:1014C0000201E0920301F09204010E94F001609396
:1014D000710270937202809373029093740220E001
:1014E00030E048E453E4C701B6010E948E2087FF34
:1014F0000CC080E090E0A8E4B3E4809301019093F5
:101500000201A0930301B09304012FE632E143E806
:101510005AE3609101017091020180910301909161
:1015200004010E944D226B017C01C0920101D09206
:101530000201E0920301F092040117FF04C010922F
:101540008602109285028F81988597FF04C01092C1
:1015500084021092830277FE04C0109282021092DD
:1015600081022AE037ED43EA5BE3C701B6010E943E
:101570004D224B015C0120E030E040E05EE30E9440
:10158000482218160CF44FC2A701960160E070E0E3
:1015900088E493E40E9406202AE037ED43EA5BE307
:1015A0000E944D226B017C0120E030E040E052E4DB
:1015B000C501B4010E944D224B015C0100918502DE
:1015C00010918602B801012E000C880B990B0E9425
:1015D0003D216F83788789879A8760916F02709128
:1015E0007002072E000C880B990B0E943D21A70169
:1015F00096010E944D222B013C012F81388549859F
:101600005A85C501B4010E944D229B01AC01C30162
:10161000B2010E9407200E9405216B8B7C8B8D8B71
:101620009E8B2B893C893093700220936F0220900F
:10163000810230908202B101032C000C880B990BBF
:101640000E943D216B877C878D879E8760916D020C
:1016500070916E02072E000C880B990B0E943D21A1
:10166000A70196010E944D222B013C012B853C8550
:101670004D855E85C501B4010E944D229B01AC01E0
:10168000C301B2010E9407200E9405212B01709323
:101690006E0260936D028091830290918402988F14
:1016A0008F8BBC01990F880B990B0E943D216F878E
:1016B000788B898B9A8B60916B0270916C02072EEC
:1016C000000C880B990B0E943D21A70196010E94F6
:1016D0004D226B017C012F85388949895A89C501C2
:1016E000B4010E944D229B01AC01C701B6010E94CA
:1016F00007200E94052170936C0260936B024B8956
:101700005C8985E0559547958A95E1F7509380026D
:1017100040937F0295E0559447949A95E1F7509253
:101720007C0240927B023B0125E0759467942A95E8
:10173000E1F7709278026092770230E0053011058F
:101740000CF430E121E08F89988D05970CF020E0B2
:10175000322B20E095E0291631040CF424E0232BF1
:1017600009F02064093E13400CF069C130E0232BDE
:1017700030E089EE281683E038060CF038E0232BA1
:101780008F89988D893E93400CF05BC11B8A9B89A1
:10179000922B9B8B90719F8B2B8924FD65C0BA0186
:1017A000550F880B990B0E943D216B017C0120E0B5
:1017B00030E040E05FE30E944D2220E030E040E274
:1017C00051E40E9406204B015C012F813885498538
:1017D0005A850E944822181694F429813A81B90149
:1017E000330F880B990B0E943D219B01AC01C50171
:1017F000B4010E944822181614F430E13F8B8B8903
:101800009F89892B8B8B80718F8B2B8924FD2CC01A
:10181000A7019601C701B6010E94072020E030E031
:1018200040E251E40E9407206B017C012F81388542
:1018300049855A850E948E2087FF12C029813A81EE
:10184000B901330F880B990B0E943D219B01AC011C
:10185000C701B6010E948E2087FF02C030E23F8B95
:101860008B899F89892B8B8B2B89247029833B89BA
:1018700032FD65C0B201550C880B990B0E943D21C9
:101880006B017C0120E030E040E05FE30E944D22EC
:1018900020E030E040E251E40E9406204B015C0170
:1018A0002B853C854D855E850E944822181694F450
:1018B0002B813C81B901330F880B990B0E943D218C
:1018C0009B01AC01C501B4010E944822181614F412
:1018D00034E039838B899981892B8B8B8470898340
:1018E0002B8922FD2CC0A7019601C701B6010E94D9
:1018F000072020E030E040E251E40E9407206B0125
:101900007C012B853C854D855E850E948E2087FF5E
:1019100012C02B813C81B901330F880B990B0E94B7
:101920003D219B01AC01C701B6010E948E2087FFBB
:1019300002C038E039838B899981892B8B8B2B8965
:10194000217029833B8930FD66C0B301770C880B79
:10195000990B0E943D216B017C0120E030E040E0CA
:101960005FE30E944D2220E030E040E251E40E941B
:1019700006204B015C012F85388949895A890E94CC
:10198000482218169CF42D813E81B901330F880B33
:10199000990B0E943D219B01AC0181E08983C50127
:1019A000B4010E94482218160CF019829B892981E3
:1019B000922B9B8B917099833B8930FD2CC0A701A2
:1019C0009601C701B6010E94072020E030E040E206
:1019D00051E40E9407206B017C012F8538894989D9
:1019E0005A890E948E2087FF12C02D813E81B90145
:1019F000330F880B990B0E943D219B01AC01C7015D
:101A0000B6010E948E2087FF02C032E039838B89A5
:101A10009981892B8B8B2B892093870286E090E01C
:101A20000E941E1CB5CCC12CD12C30E6E32E3FE326
:101A3000F32E812C912CA12C4EE3B42EB5CD30E2A7
:101A400096CE82E08B8BA3CECF93DF93CDB7DEB75C
:101A5000A1970FB6F894DEBF0FBECDBF0E94DB0387
:101A60002B013C01C0906902D0906A020E94DB0306
:101A700080E591E00E946C09F12C22242394312C02
:101A80000E94DB034B015C0130E020E050E040E0CD
:101A900070E060E090E080E00E94B307809169020E
:101AA00090916A020097F1F00197A9F10091690203
:101AB00010916A020C151D0509F4A6C0013011052C
:101AC00009F48FC008F482C00230110509F48CC0FB
:101AD0000330110509F490C08CE090E00E941E1CB8
:101AE0006801CECF24E630E050E040E070E060E0F6
:101AF00090E080E00E94B30710918702812F8373EA
:101B0000A9F230926A02209269020E94DB032B0143
:101B10003C01F12ECBCF30E020E044E650E070E015
:101B200060E090E080E00E94B307D501C401841911
:101B30009509A609B709883E9340A105B10508F4A7
:101B4000B5CF0F2D0F2C000C110B220B330B19A24C
:101B5000CE018196B901A8014F70552766277727D6
:101B600054E036952795179507955A95D1F74A3041
:101B700004F5405DFC014293CF01011511052105DB
:101B8000310541F7EF2B11F00E945F0980E491E0ED
:101B90000E945F098F2D837071F08DE591E00E94A6
:101BA0006C0983E090E090936A0280936902F12CC3
:101BB0007DCF495CDFCF8F2D807309F477CFE2E0D2
:101BC000F0E0F0936A02E0936902F1CF88E691E0D9
:101BD0000E946C090E945C089093680280936702DF
:101BE0007BCF86E891E0F4CF8DE991E00E946C090B
:101BF0000E945C088396F0CF8AEB91E00E946C090A
:101C00000E945C088197E8CF860166CFC091690287
:101C1000D0916A02C817D90711F00E944B09809130
:101C20005A02813009F05EC00E945C08BC01990F25
:101C3000880B990B0E943D219B01AC0160E070E094
:101C400084EB92E40E94062020ED3FE049E450E45A
:101C50000E944D2220E030E044E353E40E949320B0
:101C60000E94BA224B015C016091520270915302B2
:101C700080915402909155020E943D216B017C019C
:101C800020E030E040EF51E4C501B4010E944D2254
:101C90000E940521072E000C880B990B0E943D2104
:101CA0002EE431EC4BE658EC0E944D229B01AC0136
:101CB000C701B6010E9406200E9405210E943D2115
:101CC00029E43AE845E35BE30E944D220E940521A6
:101CD0006093520270935302809354029093550282
:101CE00010925A0280919802882329F00E94CE0611
:101CF00081111092980210910001111157C080912A
:101D00009802811153C00E94EA08082F10170CF0A6
:101D10004DC026E041E652E068EA8BE60E94770873
:101D2000809163029091640220915D0230915E0285
:101D3000821B930B092E000CAA0BBB0B40918C024B
:101D400050918D0260918E0270918F02840F951FC9
:101D5000A61FB71F80938C0290938D02A0938E02D2
:101D6000B0938F02809165029091660220915F028C
:101D700030916002821B930B092E000CAA0BBB0B47
:101D80004091900250919102609192027091930261
:101D9000840F951FA61FB71F809390029093910206
:101DA000A0939202B09393021F5FB0CF0E945C0891
:101DB0002091670230916802281B390B37FF1AC047
:101DC00030E020E050E040E064E670E084E090E045
:101DD0000E94B30730E020E050E040E064E670E0AD
:101DE00085E090E00E94B30789E090E00E941E1C0D
:101DF000CE010CCF232B89F030E020E044E650E008
:101E000070E060E084E090E00E94B30730E020E002
:101E100044E650E070E060E0E3CF0E944B09E4CF7D
:101E20004F925F926F927F928F929F92AF92BF92EA
:101E3000CF92DF92EF92FF920F931F93CF93DF9396
:101E4000CDB7DEB72C970FB6F894DEBF0FBECDBF6F
:101E50001092C8021092C702109276031092980353
:101E60000E94F20560E182E20E943A086FE080E29F
:101E70000E943A0861E080E00E94A30161E081E0F5
:101E80000E94A30161E086E00E94A30160E086E079
:101E90000E94750161E085E00E94A30160E085E099
:101EA0000E94750161E088E00E94A30160E088E083
:101EB0000E94750161E084E00E94A30160E084E07B
:101EC0000E94750162E087E00E94A3010E94BA00AF
:101ED00062E083E00E94A30161E08AE00E94A30126
:101EE00060E08AE00E94750161E08DE00E94A3013C
:101EF00061E08DE00E94750161E08CE00E94A30129
:101F000061E08CE00E94750161E08BE00E94A3011A
:101F100061E08BE00E9475018CEF93E00E94BD1F91
:101F2000809338028DEF93E00E94BD1F80933902A9
:101F30008EEF93E00E94BD1F80933A028FEF93E0F3
:101F40000E94BD1F80933B02C0903802D09039029E
:101F5000E0903A02F0903B022AE939E949E55FE373
:101F6000C701B6010E94482287FD12C023E333E374
:101F700043E95FE3C701B6010E948E20181644F0C2
:101F8000C0920B01D0920C01E0920D01F0920E0173
:101F90000E94AB0710E000E080914404909145045A
:101FA0000817190730F440E050E0BA01C8010E9458
:101FB000E2000F5F1F4F0630110571F780914A0450
:101FC00090914B04892B11F00E94150284E592E058
:101FD0000197F1F70E94AB0760E080E00E94A30147
:101FE0000E94BA00E99887EE93E0909315018093E0
:101FF00014011092800083E08093810010926F00A2
:1020000062E00E94A3011092980210929C0210922A
:102010009B02109297021092960210929E021092CA
:102020009F021092A0021092A102109295021092AB
:10203000940210929D0284E08093110184EF96E057
:10204000909315018093140180916900837F8460CF
:1020500080936900E99A0E94CE0668EE73E080E002
:1020600090E00E94A9031092C8021092C702109239
:102070007603109298030E94F20581E0809300019C
:1020800060E182E20E943A0864E58EE20E943A082A
:102090006FE080E20E943A0860E484E20E943A081D
:1020A00060E08AE20E944B0863E08CE20E944B08E9
:1020B00060E48DE20E944B0860E48EE20E944B08CF
:1020C00064E189E00E944B0869E08AE20E944B08C3
:1020D00064E589E00E944B08198221E0AE014F5F60
:1020E0005F4F60E28BE60E94770869816F736068DA
:1020F00080E20E943A088CE791E090930A01809375
:1021000009010E94FD0760E283E20E943A0880ED27
:1021100097E09093100180930F010E94FD0768ECF7
:1021200070E080E090E00E94A90319821A821B826D
:102130001C821D821E821F82188619861A861B86A3
:102140001C8619EE0E94EA08843110F41150D1F770
:1021500044E1F42E6E018DE0C80ED11C26E041E66C
:1021600052E068EA8BE60E94770841E652E08E0171
:102170000F5F1F4FD8018D909D90AD90BD908D0148
:10218000FA0181919191AF019D0124503109092EED
:10219000000CAA0BBB0B880D991DAA1DBB1DF901D4
:1021A00080839183A283B3830C151D0519F7FA94DC
:1021B000F110D4CF69817A818B819C8124E1C22E78
:1021C000D12CE12CF12CA70196010E94C51F309360
:1021D0005C0220935B026D817E818F819885A701CF
:1021E00096010E94C51F30935E0220935D026985AF
:1021F0007A858B859C85A70196010E94C51F309327
:10220000600220935F0219821A821B821C821D8247
:102210001E821F82188619861A861B861C8639EE36
:10222000F32E0E943709843118F4FA94F110F9CF93
:10223000B4E1FB2E82E492E00E94FE0822E432E048
:10224000FE01319681909190A190B190D9018D912C
:102250009D919D01AF0144505109092E000CAA0B1C
:10226000BB0B880E991EAA1EBB1EDA018D929D9291
:10227000AD92BC921397E017F10721F7FA94F11091
:10228000D9CF69817A818B819C81A4E14A2E512C1E
:10229000612C712CA30192010E94C51F490130934A
:1022A0003D0220933C026D817E818F819885A30140
:1022B00092010E94C51F690130933F0220933E02A4
:1022C00069857A858B859C85A30192010E94C51F33
:1022D00030934102209340020E943709082F10E0FA
:1022E000101734F481E692E00E94FE081F5FF8CFD9
:1022F0000E94EA08082F10E010174CF426E041E68F
:1023000052E068EA8BE60E9477081F5FF5CFB601BE
:102310000D2C000C880B990B0E943D2120E030E031
:1023200040E858E30E944D220E94732090582EEA04
:1023300037ED4AE556E30E9493200E940521609301
:1023400088027093890280938A0290938B02909204
:10235000430280924202D0924502C09244021092FF
:102360004E0210924F02109250021092510210929F
:10237000520210925302109254021092550210927F
:102380008C0210928D0210928E0210928F02109287
:10239000560210925702109258021092590210924F
:1023A0009002109291021092920210929302109257
:1023B0005A0262E082E00E94A301109200010E9492
:1023C000F001AB01BC018091710290917202A09169
:1023D0007302B09174028A019B01081B190B2A0B2E
:1023E0003B0B083C11052105310560F488539F4FD4
:1023F000841B950B8330910528F0880F991F049753
:102400000197F1F760E084E00E94750182E00E948C
:10241000DF016C0181E00E94DF017C0183E00E940A
:10242000DF018C0161E088E00E9475018CE891E099
:102430000197F1F782E00E94DF018C199D096C0180
:10244000909386028093850281E00E94DF018E19BD
:102450009F097C01909384028093830283E00E9411
:10246000DF01801B910B8C01045111091093820232
:102470000093810260E088E00E9475010E94F001F3
:10248000609371027093720280937302909374024E
:10249000D7FE04C01092860210928502F7FE04C097
:1024A000109284021092830217FF04C010928202DD
:1024B00010928102409185025091860250937E02D3
:1024C00040937D02209181023091820230937A0202
:1024D00020937902809183029091840290937602F6
:1024E0008093750265E0440F551F6A95E1F750939C
:1024F000700240936F0275E0220F331F7A95E1F767
:1025000030936E0220936D02E5E0880F991FEA95E3
:10251000E1F790936C0280936B020E94F00160934C
:1025200071027093720280937302909374020CE4B0
:1025300012E023E040E850E066ED71E084E29DE0C7
:102540000E94BB1A0AE412E022E040E850E069EE83
:1025500071E086E09EE00E94BB1A08E412E023E0EE
:1025600040E850E060E172E08AEB99E00E94BB1A1B
:102570001092870280E292E00E946C090E945C083F
:10258000909368028093670210926A021092690227
:102590002C960FB6F894DEBF0FBECDBFDF91CF9162
:1025A0001F910F91FF90EF90DF90CF90BF90AF9071
:1025B0009F908F907F906F905F904F9008951F92A3
:1025C0000F920FB60F9211242F933F938F939F93E7
:1025D000AF93BF938091E7029091E802A091E90246
:1025E000B091EA023091E60226E0230F2D3758F52C
:1025F0000296A11DB11D2093E6028093E7029093FD
:10260000E802A093E902B093EA028091EB02909174
:10261000EC02A091ED02B091EE020196A11DB11D58
:102620008093EB029093EC02A093ED02B093EE0244
:10263000BF91AF919F918F913F912F910F900FBEBE
:102640000F901F90189529E8230F0396A11DB11D27
:10265000D2CF1F920F920FB60F9211242F933F9358
:102660004F935F936F937F938F939F93AF93BF939A
:10267000EF93FF93E0911401F09115010995FF91FB
:10268000EF91BF91AF919F918F917F916F915F91EA
:102690004F913F912F910F900FBE0F901F90189563
:1026A0001F920F920FB60F9211242F933F934F93C7
:1026B0005F936F937F938F939F93AF93BF93EF93AA
:1026C000FF93E0911201F09113010995FF91EF91B1
:1026D000BF91AF919F918F917F916F915F914F913A
:1026E0003F912F910F900FBE0F901F9018951F9242
:1026F0000F920FB60F9211242F933F934F935F9336
:102700006F937F938F939F93AF93BF93EF93FF93B9
:1027100089E993E00E946904FF91EF91BF91AF9125
:102720009F918F917F916F915F914F913F912F91E9
:102730000F900FBE0F901F9018951F920F920FB61B
:102740000F9211242F938F939F93EF93FF93E09118
:10275000A903F091AA038081E091AF03F091B00347
:1027600082FD1BC090818091B2038F5F8F73209197
:10277000B303821741F0E091B203F0E0E756FC4F5B
:10278000958F8093B203FF91EF919F918F912F913D
:102790000F900FBE0F901F9018958081F4CFFC0111
:1027A000DB010FB6F8940F924091F2025091F302C0
:1027B0002D913C9111972F3F3207E1F08181928159
:1027C0006091F4027081761719F048175907C0F428
:1027D000481B590B4217530788F4241B350B2D93C4
:1027E0003C938091F40280838091F2029091F302F5
:1027F0009283818380E00F900FBE08951D921C92FA
:1028000081E0F9CF0FB6F8940F928091F202909187
:10281000F3020F900FBE08958091EF028F5F8093B7
:10282000EF0208950FB6F8940F92FC01928D0F906D
:102830000FBE81E0911180E00895CF93DF93FC01FA
:10284000A085B1858281938124813581EC013D830E
:102850002C83C481D5819B838A8311968D919C9111
:1028600012978E179F0721F41296DC93CE9311973F
:10287000118610868C9181508C938C91DF91CF9131
:102880000895CF93DF939C01FB01DC011196CD915C
:10289000DC91D383C2838C819D81958384838C81D9
:1028A0009D81DC0113967C936E9312977D836C83DC
:1028B00031872087F90180818F5F8083DF91CF91FD
:1028C00008950F931F93CF93DF93DC011596ED913D
:1028D000FC91C681D7818E01045F1F4FC8010E9401
:1028E0001D148091EF02811125C00A501109C80101
:1028F0000E941D148E8990914A03981710F48093BA
:102900004A03B9E08B9FC0011124B8018A5D9C4F36
:102910000E944114E0913402F09135029E8986892B
:10292000891760F481E08093A302DF91CF911F911A
:102930000F910895B8018BE093E0EACF80E0F5CFE6
:10294000EF92FF920F931F93CF93DF93EC010FB69B
:10295000F8940F921E8D7C0181E1E80EF11C01E0DC
:102960001116D4F08FEF8E8F0F900FBE0FB6F89424
:102970000F921D8D7E0188E0E80EF11C01E011161A
:10298000B4F08FEF8D8F0F900FBEDF91CF911F911D
:102990000F91FF90EF9008958989882319F3C7015B
:1029A0000E94611481110093A3021150D9CF888530
:1029B000882339F3C7010E94611481110093A30297
:1029C0001150DDCF0F931F93CF93DF938C01FB0149
:1029D00080819181D80113968F3F9807F1F4E80127
:1029E000AF81B88512968D919C91139793838283C2
:1029F000EC01FD83EC83B583A4831396FC93EE93E3
:102A0000129711870087F80180818F5F8083DF91A3
:102A1000CF911F910F910895D90112962D913C915C
:102A20001397E9014881598184179507A8F7DACFF0
:102A3000FC0173836283918780874617570790F064
:102A4000421B530B8485958548175907C8F4BF016D
:102A50006E5F7F4F8091CA029091CB020E94E21478
:102A600080E008954217530718F46217730740F483
:102A7000BF016E5F7F4F8091CC029091CD02EECF6F
:102A800081E00895FF920F931F93CF93DF93EC01A2
:102A9000F62E0091F2021091F3028091340290918F
:102AA000350202960E941D14CF3FDC0789F4FF20F7
:102AB00079F060913402709135026E5F7F4F89EF3B
:102AC00092E0DF91CF911F910F91FF900C944114F0
:102AD000C00FD11FE0913402F0913502D383C2833D
:102AE0006091340270913502C017D10768F480916B
:102AF000F5029091F6026E5F7F4FDF91CF911F91AB
:102B00000F91FF900C94E2148091F7029091F802DB
:102B10006E5F7F4F0E94E2148091E2029091E30287
:102B2000C817D90720F4D093E302C093E202DF91E3
:102B3000CF911F910F91FF900895FC01039692830E
:102B400081832FEF3FEF34832383968385839087A0
:102B50008783108208950F920FB6F8940F921F92F8
:102B600011242F923F924F925F926F927F928F9299
:102B70009F92AF92BF92CF92DF92EF92FF920F930C
:102B80001F932F933F934F935F936F937F938F93F5
:102B90009F93AF93BF93CF93DF93EF93FF93A09156
:102BA0003402B09135020DB60D920EB60D928091A1
:102BB000EF02882321F081E08093A3025FC010928E
:102BC000A302A0913402B0913502E0913402F09159
:102BD00035022D913C918789908D82179307A8F03B
:102BE00080913402909135028091340290913502A7
:102BF000259A2D9A2FEF83ED90E32150804090404D
:102C0000E1F700C000001D9AF5CF20914A0389E04A
:102C100001C02150422F50E0849FF001859FF00DAC
:102C20001124EA5DFC4F9081992399F3A181B2812F
:102C300012960D90BC91A02DB283A183289FC00154
:102C40001124875D9C4FA817B90729F412968D911E
:102C50009C919283818389E0849FF001859FF00D90
:102C60001124EA5DFC4F0180F281E02D868197817D
:102C7000909335028093340220934A03A09134024A
:102C8000B0913502CD91CDBFDD91DEBFFF91EF91C7
:102C9000DF91CF91BF91AF919F918F917F916F9174
:102CA0005F914F913F912F911F910F91FF90EF9066
:102CB000DF90CF90BF90AF909F908F907F906F905C
:102CC0005F904F903F902F901F900F900FBE0F90EE
:102CD00008958F929F92AF92BF92CF92DF92EF9220
:102CE000FF920F931F93CF93DF930FB6F8940F9239
:102CF0008091EF0281508093EF028091EF02882350
:102D000081F080E00F900FBEDF91CF911F910F9166
:102D1000FF90EF90DF90CF90BF90AF909F908F90FB
:102D2000089580914D03882361F3D0E0C0E029E04D
:102D3000F22EEE24E39429C0E0911003F0911103E8
:102D4000C681D781CE010C960E941D148E010E5FA4
:102D50001F4FC8010E941D148E8990914A03981735
:102D600010F480934A038F9DC0011124B8018A5D3D
:102D70009C4F0E944114E0913402F09135029E89EB
:102D80008689981710F0E092A30280910B038111BD
:102D9000D3CFCD2B11F00E94B306E090A202EE201B
:102DA00009F451C089E0982E88248394CC24CA94D5
:102DB000DC2C8091EF0281119DC0C091F202D09174
:102DC000F3022196D093F302C093F2022097B9F454
:102DD0008091F7029091F8022091F5023091F6026D
:102DE0003093F8022093F7029093F6028093F50255
:102DF0008091F4028F5F8093F4020E94B306809169
:102E0000E2029091E302F12CC817D90708F066C0DE
:102E1000E0913402F0913502E6899E9EF001112482
:102E2000EA5DFC4F8081823010F0FF24F3948091A2
:102E3000A302811101C0F1108092A302EA94E11073
:102E4000B8CF1092A2028091A302882309F459CF2F
:102E50000E94AB1581E056CFE091F702F091F802A5
:102E60000580F681E02D06811781D80112968D919B
:102E70009C91C817D90728F49093E3028093E2024B
:102E8000C7CF5801B2E0AB0EB11CC5010E941D14A2
:102E9000F80184899589892B21F0C8010C960E943C
:102EA0001D14D80156968C9190914A03981710F4EE
:102EB00080934A03899DC0011124B5018A5D9C4F0E
:102EC0000E944114E0913402F0913502D8015696E7
:102ED0009C918689981710F0FF24F394E091F702F3
:102EE000F091F80280818111B7CFD092E302C092B5
:102EF000E2028ECF8091A2028F5F8093A202F12C1A
:102F000096CFAF92BF92CF92DF92EF92FF920F9344
:102F10001F93CF93DF9300D000D01F92CDB7DEB7C1
:102F20008C017B011D821C8280E0680128E0C20EBA
:102F3000D11C0FB6F8940F92F801228D938D2917AA
:102F400008F078C0D28C448D41115AC080819181A3
:102F5000892B11F080E009C0E280F380E114F104D4
:102F600021F580E0F80113821282D394F801D28E09
:102F70009189992321F0C80141960E946114811121
:102F80000E94AB150F900FBE81E00F900F900F9035
:102F90000F900F90DF91CF911F910F91FF90EF90C5
:102FA000DF90CF90BF90AF900895F70182A181503C
:102FB00082A3268991A12917A1F28111D2CF5701AD
:102FC000F2E0AF0EB11CC5010E941D14F70181A1F2
:102FD000868B24E030E0281B3109358724879091C7
:102FE0004A03981710F480934A03F9E08F9FC001B9
:102FF0001124B5018A5D9C4F0E94411481E0B2CF3B
:1030000050E0B701848195810E948724F801848D66
:1030100024813581820F932F911D95838483228192
:1030200033818217930708F495CF8081918195832E
:10303000848390CF2C813D81232B21F40F900FBEF0
:1030400080E0A3CF811109C08091F402898380912F
:10305000F2029091F3029B838A830F900FBE0E942D
:103060000C140FB6F8940F92F801858D8F3F09F478
:10307000158EF801868D8F3F09F4168E0F900FBEC6
:10308000BE016C5F7F4FCE0101960E94CF1381116C
:103090002AC00FB6F8940F92F801928D838D0F908D
:1030A0000FBE98131AC0AC80BD806091340270913D
:1030B0003502645F7F4FC6010E94E21461E0C501E2
:1030C0000E944215C8010E94A0140E946916811135
:1030D00002C00E94AB1581E02CCFC8010E94A01451
:1030E0000E946916F8CFC8010E94A0140E946916B8
:1030F000A7CFCF93DF9300D000D01F92CDB7DEB71C
:103100009C018091F0029091F1020097B9F0198230
:103110007B836A833D832C8320914C03BE016F5FC8
:103120007F4F21112091EF020E9481170F900F9085
:103130000F900F900F90DF91CF91089580E0F6CF20
:10314000EF92FF920F931F93CF93DF93E091CC0206
:10315000F091CD028081811113C08091CA029091BB
:10316000CB029093CD028093CC02F093CB02E093FC
:10317000CA02DF91CF911F910F91FF90EF900895B8
:103180000580F681E02D00811181C681D7817E0105
:1031900082E0E80EF11CC7010E941D14E989FA893A
:1031A000CE0109958E85813089F68C859D85800FAD
:1031B000911F0817190760F49B838A83D987C887F2
:1031C000B7018091CC029091CD020E94E214BECF53
:1031D000B801CE010E947918B9CFCF93DF93009741
:1031E00051F0EC010E940C14CE010E94FE23DF91ED
:1031F000CF910C946916DF91CF910895CF93DF930F
:10320000CDB7DEB72A970FB6F894DEBF0FBECDBF9D
:10321000E091CC02F091CD02F08010E000E0FF20C0
:1032200029F00580F681E02D008111810E940C14A7
:103230000E9402146C018091A5029091A602C8160A
:10324000D90608F079C00E94A018D092A602C092B8
:10325000A5020E9469160091F0021091F1021A86EF
:10326000198680E06801B1E1CB0ED11C0FB6F8944D
:103270000F92F801F28CFF2009F409C1448D442318
:10328000C1F050E086819781840F951F97838683D4
:10329000228133818217930720F080819181978367
:1032A0008683D80116966D917C91CE0101960E947D
:1032B0008724FA94F801F28E8085882339F0C801BA
:1032C00008960E94611481110E94AB150F900FBEE9
:1032D000F980F7FCC0CF0C811D81D8011A968D9121
:1032E0009C91892B21F0C80102960E941D140E9416
:1032F00002146C018091A5029091A602C816D9060D
:1033000010F40E94A018D092A602C092A502B9E0C3
:10331000BF1508F4A0CFEF2DFF0CFF0BEE56F64EB5
:103320000C945C23121A121A121A2B19341A431A0B
:10333000121A121A2B19341AD092A602C092A502A0
:10334000FF2079F1C016D106A0F10E946916E09124
:10335000CC02F091CD020580F681E02DE680F78069
:10336000C70102960E941D14D7011E968C911E97CC
:10337000813081F41C966D917C91600F711F9801D2
:10338000A601C7010E941815882321F0B801C701C2
:103390000E947918D7015196ED91FC91C7010995CA
:1033A0005ACFE091CA02F091CB028081BB24B39442
:1033B0008111B12CE090F002F090F1020FB6F89478
:1033C0000F92F701858D8F3F09F4158ED7015E9618
:1033D0008C915E978F3F11F45E961C920F900FBEFA
:1033E000F701828D811114C0609134027091350211
:1033F000645F7F4FC70141960E944114C8018C1938
:103400009D09BB2011F08FEF9FEF6B2D0E9442159D
:10341000C7010E94A0140E94691681111CCF0E944E
:10342000AB1519CFEA80FB80F801648575856E0DB8
:103430007F1D9701A601C8010E941815882309F471
:103440000ACFD8015196ED91FC91C8010995F80178
:103450008685813009F0FFCE648575856E0D7F1DF0
:10346000C8010E947918F7CE6A817B81D8011D9628
:103470007C936E931C976C0D7D1D9601A601C8016F
:103480000E941815E8CEC8010E94ED18E4CE2985E7
:103490003A85232B19F40F900FBEBACE811109C0C3
:1034A0008091F4028E838091F2029091F3029887CA
:1034B0008F830F900FBE0E940C140FB6F8940F92DA
:1034C000D8015D968C915D978F3F11F45D961C92AB
:1034D000F801868D8F3F09F4168E0F900FBEBE0146
:1034E000675F7F4FCE0106960E94CF13811125C0E2
:1034F000C8010E9412148823D1F0E984FA846091F3
:10350000340270913502645F7F4FC6010E94E2145D
:1035100061E0C7010E944215C8010E94A0140E94E8
:103520006916811102C00E94AB1581E09FCEC801CF
:103530000E94A0140E946916F8CFC8010E94A0142E
:103540000E946916C8010E941214882371F360CE8C
:10355000CF93DF93EC010E940C14CE010E946223F2
:10356000EC010E946916209711F40E947A09CE019D
:10357000DF91CF9108957F928F929F92AF92BF92E9
:10358000CF92DF92EF92FF920F931F93CF93DF932F
:10359000982EA92E762E872E7A01B22ECA010E946D
:1035A000A81A6C01892B09F428C188E290E00E94D6
:1035B000A81AEC01892B09F41DC1D88ECF8AA70166
:1035C00065EA70E0C6010E94902421E0E21AF10849
:1035D000EF89F88DEE0DFF1D672D782DCE014996F0
:1035E0009B01285F3F4FDB014D91BD01DC014D93F5
:1035F000CD01AB0141505109DA014C91442319F03E
:103600006217730781F718A2BE8AB9A21AA21B8695
:103610001A861D8A1C8AD987C88784E090E08B1996
:1036200091099D878C87DB8BCA8B1BA21CA21DA2D4
:103630001EA21FA291E19083DF01119782E28C9379
:10364000119723E32C9311979C921197AC921197A9
:103650001C92119720E82C9311971C92119722E04D
:103660002C93119723E02C93119724E02C9311971E
:1036700025E02C93119726E02C93119727E02C93AB
:10368000119728E02C93119729E02C93119720E1B2
:103690002C9311979C93119792E19C93119793E12E
:1036A0009C93119794E19C93119795E19C931197AA
:1036B00096E19C93119797E19C93119798E19C93C5
:1036C000119799E19C93119790E29C93119791E245
:1036D0009C9311978C93119783E28C9311971C9272
:1036E00011971C92119786E28C93119787E28C9325
:1036F000119788E28C93119789E28C93119780E35C
:103700008C93119781E38C93B697F983E883F80142
:10371000D183C0830FB6F8940F9280914D038F5FD1
:1037200080934D038091340290913502892B09F0EA
:1037300073C0D0933502C093340280914D03813021
:1037400081F586E293E00E949D158FE293E00E944E
:103750009D1588E393E00E949D1581E493E00E940B
:103760009D158DE193E00E949D1584E193E00E94F8
:103770009D158BE093E00E949D1582E093E00E94EE
:103780009D1589EF92E00E949D158DE193E0909345
:10379000F8028093F70284E193E09093F60280931D
:1037A000F50280914B038F5F80934B038E8990913C
:1037B0004A03981710F480934A03F9E08F9FC001E1
:1037C0001124BE016E5F7F4F8A5D9C4F0E944114A1
:1037D0000F900FBE80914C03882351F0E09134028A
:1037E000F091350296898E89981710F40E94AB15D6
:1037F00081E004C0C6010E94ED188FEFDF91CF91E8
:103800001F910F91FF90EF90DF90CF90BF90AF90FE
:103810009F908F907F90089580914C038111C1CF2C
:10382000E0913402F091350296898E89891708F467
:10383000B8CFD0933502C0933402B3CFCF93DF9388
:10384000EC01892B29F40E94AB15DF91CF910895EB
:103850000E940C1460E0CE010E9442150E9469167D
:10386000882389F3F2CF0F920FB6F8940F921F922C
:1038700011242F923F924F925F926F927F928F927C
:103880009F92AF92BF92CF92DF92EF92FF920F93EF
:103890001F932F933F934F935F936F937F938F93D8
:1038A0009F93AF93BF93CF93DF93EF93FF93A09139
:1038B0003402B09135020DB60D920EB60D9213BEC4
:1038C0008091EF028111F2C08091F2029091F30297
:1038D00001969093F3028093F202009799F520915C
:1038E000F7023091F8024091F5025091F6025093A0
:1038F000F8024093F7023093F6022093F5022091EC
:10390000F4022F5F2093F402E091F702F091F802A5
:103910002081211107C02FEF3FEF3093E302209366
:10392000E20210C0E091F702F091F8020580F68102
:10393000E02D0680F781E02D228133813093E30270
:103940002093E2022091E2023091E3028217930772
:1039500010F420E09BC020E019E0E091F702F09124
:10396000F8023081311107C08FEF9FEF9093E3028F
:103970008093E2028BC0E091F702F091F80205809B
:10398000F681E02D0680F781E02D42815381841776
:10399000950728F45093E3024093E20277C0AF0109
:1039A0004E5F5F4FA285B38564817581E680F780A5
:1039B000EB01FD82EC82C681D7817B836A831196FD
:1039C0006D917C9112974617570721F41296DC935C
:1039D000CE931197138612863C9131503C933C91C3
:1039E000A489B5891097F9F066857785E088F18814
:1039F000EB01FD82EC82C089D1897B836A831196B9
:103A0000ED90FC901297BF01645F7F4FE616F706BA
:103A100021F41296DC93CE931197158A148A3C9167
:103A200031503C933C91A68930914A033A1710F4E7
:103A3000A0934A031A9FD0011124BD016A5D7C4FF7
:103A40007B01DB011196CD91DC91D583C4836C8120
:103A50007D81778366836C817D81DB0113965C9326
:103A60004E9312975D834C83F386E286E70138819B
:103A70003F5F3883A0913402B09135024689569653
:103A80003C91431708F469CF21E067CFE0913402FD
:103A9000F0913502E689D9E0ED9FF0011124EA5D4D
:103AA000FC4F8081823040F021E006C08091A2026C
:103AB0008F5F8093A20220E08091A302811103C056
:103AC000222309F467C08091EF02882321F081E06E
:103AD0008093A3025FC01092A302A0913402B09120
:103AE0003502E0913402F09135022D913C918789A5
:103AF000908D82179307A8F080913402909135023F
:103B00008091340290913502259A2D9A2FEF63ED22
:103B100070E3215060407040E1F700C000001D9A42
:103B2000F5CF20914A0389E001C02150422F50E097
:103B3000849FF001859FF00D1124EA5DFC4F908178
:103B4000992399F3A181B28112960D90BC91A02D79
:103B5000B283A183289FC0011124875D9C4FA817C1
:103B6000B90729F412968D919C919283818389E003
:103B7000849FF001859FF00D1124EA5DFC4F0180C8
:103B8000F281E02D868197819093350280933402F3
:103B900020934A03A0913402B0913502CD91CDBF5C
:103BA000DD91DEBFFF91EF91DF91CF91BF91AF919A
:103BB0009F918F917F916F915F914F913F912F9145
:103BC0001F910F91FF90EF90DF90CF90BF90AF903B
:103BD0009F908F907F906F905F904F903F902F902D
:103BE0001F900F900FBE0F9008950E94331C1895E0
:103BF00010929C0310929B0388EE93E0A0E0B0E04B
:103C000080939D0390939E03A0939F03B093A00382
:103C100020E231E030939A032093990325EC30E0C1
:103C20003093A6032093A50324EC30E03093A8033F
:103C30002093A70320EC30E03093AA032093A9033C
:103C400021EC30E03093AC032093AB0322EC30E066
:103C50003093AE032093AD0326EC30E03093B003F5
:103C60002093AF031092B2031092B3031092B403E7
:103C70001092B503109239041092380480933A04DC
:103C800090933B04A0933C04B0933D0482E391E005
:103C900090933704809336041092430410924904A1
:103CA0001092500410925104109252041092530436
:103CB00081E080934F0480934C0410924D0492E075
:103CC00090934E048093420482E190E090934704E5
:103CD000809346040E94622390934B0480934A048D
:103CE000009771F122E1FC0111922A95E9F786E033
:103CF00090E0909345048093440487E080934804C7
:103D000080914304882341F061E087E00E94A30191
:103D100060E087E00E947501EFE0F1E0E491F0E0FF
:103D2000EE0FFF1FE250FF4F859194919093550441
:103D300080935404E1EFF0E0E491E0935604089599
:103D400010924704109246041092450410924404C5
:103D5000D4CF789484B5826084BD84B5816084BDFD
:103D600085B5826085BD85B5816085BD80916E0019
:103D7000816080936E00109281008091810082604A
:103D80008093810080918100816080938100809187
:103D900080008160809380008091B1008460809376
:103DA000B1008091B00081608093B00080917A0072
:103DB000846080937A0080917A00826080937A0098
:103DC00080917A008E7F80937A0080917A0080685B
:103DD00080937A001092C1000E94100F04EE12E04E
:103DE00020E040EC50E066E272E087E899E00E9453
:103DF000BB1A813009F0AFC00FB6F8940F928091D2
:103E0000F0029091F102892B09F04BC087ED92E00E
:103E10000E949D158EEC92E00E949D1587ED92E028
:103E20009093CD028093CC028EEC92E09093CB02E3
:103E30008093CA0281E590E00E94A81AEC010097E5
:103E400061F14F96998388838AE08B8F85E08C8F10
:103E50000FB6F8940F92288139814C8D9B8D499F24
:103E6000C0011124B901680F791F7B836A831A8E00
:103E70003D832C83841B9109820F931F9F838E8324
:103E80008FEF8D8F8E8FCE0108960E949D15CE01EB
:103E900041960E949D150F900FBED093F102C093E2
:103EA000F0020F900FBE8091F0029091F102892BE9
:103EB00009F451C000EE12E023E045E550E06BE26A
:103EC00072E08EEF98E10E94BB1A813009F043C086
:103ED000F8942FEF3FEF3093E3022093E2028093B8
:103EE0004C031092F3021092F202A89588E190EC34
:103EF0000FB6F894A895809360000FBE9093600071
:103F0000A0913402B0913502CD91CDBFDD91DEBFDD
:103F1000FF91EF91DF91CF91BF91AF919F918F91E1
:103F20007F916F915F914F913F912F911F910F91D1
:103F3000FF90EF90DF90CF90BF90AF909F908F90C9
:103F40007F906F905F904F903F902F901F900F90B9
:103F50000FBE0F9008950E947A0980914A049091B3
:103F60004B04009711F00E94FE238091480487FDC6
:103F700003C060E00C94A3010895F999FECF92BDAF
:103F800081BDF89A992780B50895052E97FB1EF4F8
:103F900000940E94DC1F57FD07D00E94E41F07FC1D
:103FA00003D04EF40C94DC1F50954095309521952C
:103FB0003F4F4F4F5F4F0895909580957095619555
:103FC0007F4F8F4F9F4F0895A1E21A2EAA1BBB1B54
:103FD000FD010DC0AA1FBB1FEE1FFF1FA217B307D5
:103FE000E407F50720F0A21BB30BE40BF50B661FEB
:103FF000771F881F991F1A9469F7609570958095AF
:1040000090959B01AC01BD01CF0108955058BB278D
:10401000AA270E941E200C940E220E94002238F033
:104020000E94072220F039F49F3F19F426F40C94E3
:10403000C2210EF4E095E7FB0C94BC21E92F0E940D
:104040001F2258F3BA17620773078407950720F0F9
:1040500079F4A6F50C9441220EF4E0950B2EBA2FBC
:10406000A02D0B01B90190010C01CA01A00111247E
:10407000FF27591B99F0593F50F4503E68F11A162A
:10408000F040A22F232F342F4427585FF3CF4695BB
:1040900037952795A795F0405395C9F77EF41F16DD
:1040A000BA0B620B730B840BBAF09150A1F0FF0FA7
:1040B000BB1F661F771F881FC2F70EC0BA0F621F93
:1040C000731F841F48F4879577956795B795F79583
:1040D0009E3F08F0B0CF9395880F08F09927EE0F18
:1040E0009795879508959F939F77EEE389379E076D
:1040F00028F4E8E6F0E00E94EC210CC00E94782150
:104100009058A2EA2AED3FE049EC5FE30E941E20AE
:104110000E940E220F9007FC905808950E9498214B
:1041200008F481E008950E94A7200C940E220E94BA
:10413000072258F00E94002240F029F45F3F29F046
:104140000C94BC2151110C9442220C94C2210E9467
:104150001F2268F39923B1F3552391F3951B550B57
:10416000BB27AA2762177307840738F09F5F5F4F4A
:10417000220F331F441FAA1FA9F335D00E2E3AF089
:10418000E0E832D091505040E695001CCAF72BD0A1
:10419000FE2F29D0660F771F881FBB1F26173707F2
:1041A0004807AB07B0E809F0BB0B802DBF01FF2724
:1041B00093585F4F3AF09E3F510578F00C94BC2124
:1041C0000C9442225F3FE4F3983ED4F386957795B2
:1041D0006795B795F7959F5FC9F7880F911D9695DD
:1041E000879597F90895E1E0660F771F881FBB1F39
:1041F000621773078407BA0720F0621B730B840BE6
:10420000BA0BEE1F88F7E09508950E940C21689480
:10421000B1110C94422208950E94272288F09F57E2
:1042200098F0B92F9927B751B0F0E1F0660F771FDA
:10423000881F991F1AF0BA95C9F714C0B13091F0D0
:104240000E944122B1E008950C944122672F782FFB
:104250008827B85F39F0B93FCCF386957795679595
:10426000B395D9F73EF490958095709561957F4F01
:104270008F4F9F4F0895E89409C097FB3EF49095A7
:104280008095709561957F4F8F4F9F4F9923A9F02F
:10429000F92F96E9BB279395F695879577956795BE
:1042A000B795F111F8CFFAF4BB0F11F460FF1BC002
:1042B0006F5F7F4F8F4F9F4F16C0882311F096E995
:1042C00011C0772321F09EE8872F762F05C0662343
:1042D00071F096E8862F70E060E02AF09A95660FFC
:1042E000771F881FDAF7880F9695879597F90895B5
:1042F000DF93CF931F930F938B01EC01ECE7F0E07A
:104300000E94C5210E940E229801AE018B01EC0192
:1043100060E070E080E89FE30E9406200E94C822CF
:104320009801AE010F911F91CF91DF910C94602203
:10433000990F0008550FAA0BE0E8FEEF16161706B6
:10434000E807F907C0F012161306E407F50798F01E
:10435000621B730B840B950B39F40A2661F0232B37
:10436000242B252B21F408950A2609F4A140A695B3
:104370008FEF811D811D089597F99F6780E870E098
:1043800060E008959FEF80EC0895DF93CF931F9333
:104390000F93FF92EF92DF927B018C01689406C02D
:1043A000DA2EEF010E946022FE01E894A59125918A
:1043B000359145915591A6F3EF010E941E20FE0113
:1043C0009701A801DA9469F7DF90EF90FF900F91C1
:1043D0001F91CF91DF9108959F938F937F936F9358
:1043E000FF93EF939B01AC010E944D22EF91FF914F
:1043F0000E94C5212F913F914F915F910C944D22C6
:1044000000240A94161617061806090608950024B3
:104410000A9412161306140605060895092E03942D
:10442000000C11F4882352F0BB0F40F4BF2B11F4A1
:1044300060FF04C06F5F7F4F8F4F9F4F089557FD00
:104440009058440F551F59F05F3F71F04795880F02
:1044500097FB991F61F09F3F79F087950895121699
:1044600013061406551FF2CF4695F1DF08C0161645
:1044700017061806991FF1CF8695710561050894F6
:104480000895E894BB2766277727CB0197F908950D
:104490000E94982108F48FEF08950E9460220C94E6
:1044A0000E220E94002238F00E94072220F095235D
:1044B00011F00C94BC210C94C22111240C944222C2
:1044C0000E941F2270F3959FC1F3950F50E0551F76
:1044D000629FF001729FBB27F00DB11D639FAA2759
:1044E000F00DB11DAA1F649F6627B00DA11D661FA8
:1044F000829F2227B00DA11D621F739FB00DA11DC9
:10450000621F839FA00D611D221F749F3327A00D82
:10451000611D231F849F600D211D822F762F6A2F1E
:1045200011249F5750409AF0F1F088234AF0EE0F83
:10453000FF1FBB1F661F771F881F91505040A9F7B0
:104540009E3F510580F00C94BC210C9442225F3FA9
:10455000E4F3983ED4F3869577956795B795F795EC
:10456000E7959F5FC1F7FE2B880F911D9695879564
:1045700097F908959F930E941F230F9007FCEE5F09
:104580000C94482319F416F40C94C2210C940823BB
:104590000E942722B8F39923C9F3B6F39F57550B0E
:1045A00087FF0E9416230024A0E640EA900180586D
:1045B0005695979528F4805C660F771F881F20F02A
:1045C00026173707480730F4621B730B840B20292A
:1045D00031294A2BA69517940794202531254A277F
:1045E00058F7660F771F881F20F0261737074807F0
:1045F00030F4620B730B840B200D311D411DA0950F
:1046000081F7B901842F9158880F96958795089561
:104610009F3F31F0915020F4879577956795B79536
:10462000880F911D9695879597F908959150504060
:10463000660F771F881FD2F708950C94C2210E943D
:104640002722D8F3E894E0E0BB279F57F0F02AED4B
:104650003FE049EC06C0EE0FBB0F661F771F881FB7
:1046600028F0B23A62077307840728F0B25A620B47
:10467000730B840BE3959A9572F7803830F49A9512
:10468000BB0F661F771F881FD2F790480C940A2330
:10469000EF93E0FF07C0A2EA2AED3FE049EC5FEBB1
:1046A0000E941E200E940E220F90039401FC90583D
:1046B000E4EAF0E00C94EC21EE0FFF1F0590F4917A
:1046C000E02D09940F931F93CF93DF9382309105D0
:1046D00010F482E090E0E0915904F0915A0430E047
:1046E00020E0B0E0A0E0309799F42115310509F4FD
:1046F0004AC0281B390B24303105D8F58A819B81AB
:104700006115710589F1FB0193838283FE0111C05C
:10471000408151810281138148175907E0F0481701
:10472000590799F4109761F012960C93129713960B
:104730001C933296CF01DF91CF911F910F91089575
:104740000093590410935A04F4CF2115310551F008
:104750004217530738F0A901DB019A01BD01DF01BF
:10476000F801C1CFEF01F9CF90935A048093590417
:10477000CDCFFE01E20FF31F8193919322503109B7
:1047800039832883D7CF2091570430915804232BA5
:1047900041F420911801309119013093580420936D
:1047A000570420911601309117012115310541F46C
:1047B0002DB73EB740911A0150911B01241B350BB8
:1047C000E0915704F0915804E217F307A0F42E1B70
:1047D0003F0B2817390778F0AC014E5F5F4F241765
:1047E000350748F04E0F5F1F50935804409357040D
:1047F000819391939FCFF0E0E0E09CCFCF93DF9344
:104800000097E9F0FC01329713821282A0915904BB
:10481000B0915A04ED0130E020E01097A1F420811E
:104820003181820F931F209157043091580428172B
:10483000390709F061C0F0935804E0935704DF9101
:10484000CF910895EA01CE17DF07E8F54A815B8131
:104850009E0141155105B1F7E901FB83EA834991B6
:104860005991C40FD51FEC17FD0761F48081918128
:104870000296840F951FE901998388838281938131
:104880009B838A83F0E0E0E012968D919C911397D0
:104890000097B9F52D913C911197CD010296820FA9
:1048A000931F20915704309158042817390739F67F
:1048B000309751F510925A0410925904B09358044D
:1048C000A0935704BCCFD383C28340815181840F0E
:1048D000951FC817D90761F44E5F5F4F8881998192
:1048E000480F591F518340838A819B819383828320
:1048F0002115310509F0B0CFF0935A04E093590423
:104900009ECFFD01DC01C0CF13821282D7CFFB0105
:10491000DC0102C001900D9241505040D8F708953B
:10492000DC0101C06D9341505040E0F7089510E064
:10493000CFE8D0E004C0FE010E945C232196C0397C
:10494000D107C9F7F894FFCF010000803F00008035
:104950003F5F000000803FFA0004E703E703000028
:104960005B048000000000008B04E8031504D804F9
:104970004604240438040000000067063A06B00626
:1049800010063306200611060D0A0073656E736962
:104990006E67207461736B004E6176696761746540
:1049A0004D617A65007269676874206564676500A7
:1049B0006D616E7565766572206973206E6F772004
:1049C00044726976655374726169676874006D61D9
:1049D0006E7565766572206973206E6F772042610F
:1049E000636B7570006D616E7565766572206973B5
:1049F000206E6F77205475726E696E6752696768B2
:104A000074006D616E7565766572206973206E6FD6
:104A100077205475726E696E674C656674006D61BF
:104A20007A652067756964616E6365207461736B74
:104A300000447269766520696E20646972656374EA
:104A4000696F6E206F6620696E74656E64656420A0
:104A500068656164696E6700436865636B20666FB3
:104A600072206564676573007365747570004944EE
:0C4A70004C4500546D722053766300002A
:107800000C94343C0C94513C0C94513C0C94513CE1
:107810000C94513C0C94513C0C94513C0C94513CB4
:107820000C94513C0C94513C0C94513C0C94513CA4
:107830000C94513C0C94513C0C94513C0C94513C94
:107840000C94513C0C94513C0C94513C0C94513C84
:107850000C94513C0C94513C0C94513C0C94513C74
:107860000C94513C0C94513C11241FBECFEFD8E036
:10787000DEBFCDBF11E0A0E0B1E0EAE8FFE702C063
:1078800005900D92A230B107D9F712E0A2E0B1E065
:1078900001C01D92AD30B107E1F70E942D3D0C945F
:1078A000C33F0C94003C982F95959595959595958B
:1078B000905D8F708A307CF0282F295A8091C0000B
:1078C00085FFFCCF9093C6008091C00085FFFCCF60
:1078D0002093C6000895282F205DF0CF982F809127
:1078E000C00085FFFCCF9093C6000895EF92FF92F1
:1078F0000F931F93EE24FF2487018091C00087FD22
:1079000017C00894E11CF11C011D111D81E2E8164D
:1079100081EAF80687E0080780E0180770F3E09135
:107920000401F091050109958091C00087FFE9CF1E
:107930008091C6001F910F91FF90EF9008950E94D3
:10794000763C982F8091C00085FFFCCF9093C600B5
:1079500091362CF490330CF09053892F089597555D
:10796000892F08951F930E949F3C182F0E949F3CCF
:107970001295107F810F1F9108951F93182F882350
:1079800021F00E94763C1150E1F71F9108951F935A
:10799000182F0E94763C803249F0809103018F5F5E
:1079A000809303018530C1F01F9108958091C0003C
:1079B00085FFFCCF84E18093C6008091C00085FFE5
:1079C000FCCF1093C6008091C00085FFFCCF80E102
:1079D0008093C6001F910895E0910401F091050184
:1079E00009951F9108950E94763C803241F0809164
:1079F00003018F5F80930301853081F008958091AA
:107A0000C00085FFFCCF84E18093C6008091C00058
:107A100085FFFCCF80E18093C6000895E0910401CA
:107A2000F09105010995089548EC50E08823A1F0F4
:107A30002D9A28EE33E0FA013197F1F721503040CA
:107A4000D1F72D9828EE33E0FA013197F1F7215064
:107A50003040D1F7815061F708953F924F925F9285
:107A60006F927F928F929F92AF92BF92CF92DF924E
:107A7000EF92FF920F931F93CF93DF93000082E06A
:107A80008093C00080E18093C4001092C50088E11B
:107A90008093C10086E08093C2005098589A259A3E
:107AA00081E00E94143D24E1F22E9EE1E92E85E959
:107AB000D82E0FE0C02E10E1B12EAA24A394B1E479
:107AC0009B2EA6E58A2EF2E57F2EE0E26E2E79E46B
:107AD000572E63E5462E50E5352E0E94763C8033C6
:107AE000B1F18133B9F1803409F46FC0813409F404
:107AF00076C0823409F485C0853409F488C08035A5
:107B000031F1823521F1813511F1853509F485C0D6
:107B1000863509F48DC0843609F496C0843709F49B
:107B200003C1853709F472C1863709F466C08091B4
:107B300003018F5F80930301853079F6E0910401A2
:107B4000F091050109950E94763C803351F60E9420
:107B5000F33CC3CF0E94763C803249F78091C0004D
:107B600085FFFCCFF092C6008091C00085FFFCCF5E
:107B70009092C6008091C00085FFFCCF8092C60025
:107B80008091C00085FFFCCF7092C6008091C0003C
:107B900085FFFCCF6092C6008091C00085FFFCCFBE
:107BA0005092C6008091C00085FFFCCF4092C60075
:107BB0008091C00085FFFCCF3092C6008091C0004C
:107BC00085FFFCCFB092C60088CF0E94763C8638F5
:107BD00008F4BDCF0E94763C0E94F33C7ECF0E9409
:107BE000763C803809F49CC0813809F40BC1823896
:107BF00009F430C1883909F48FC080E00E94C73C85
:107C00006CCF84E10E94BD3C0E94F33C66CF85E0CE
:107C10000E94BD3C0E94F33C60CF0E94763C809362
:107C200006010E94763C809307010E94F33C55CFE9
:107C30000E94763C803309F411C183E00E94BD3C70
:107C400080E00E94C73C49CF0E94763C80930902A5
:107C50000E94763C8093080280910C028E7F809374
:107C60000C020E94763C853409F409C18091080217
:107C700090910902892B89F000E010E00E94763C87
:107C8000F801E85FFE4F80830F5F1F4F809108026D
:107C9000909109020817190788F30E94763C8032F8
:107CA00009F045CF80910C0280FFF5C0609106017C
:107CB00070910701660F771F7093070160930601AB
:107CC000A0910802B09109021097C9F0E8E0F1E034
:107CD0009B01AD014E0F5F1FF999FECF32BD21BD53
:107CE000819180BDFA9AF99A2F5F3F4FE417F5070B
:107CF00099F76A0F7B1F70930701609306018091CB
:107D0000C00085FFFCCFF092C6008091C00085FFC7
:107D1000FCCFB092C600E1CE83E00E94C73CDDCE2E
:107D200082E00E94C73CD9CE0E94763C8093090233
:107D30000E94763C80930802809106019091070191
:107D4000880F991F90930701809306010E94763C4B
:107D5000853409F49AC080910C028E7F80930C02C6
:107D60000E94763C803209F0B8CE8091C00085FF39
:107D7000FCCFF092C600A0910802B09109021097C2
:107D8000C1F180910C02082F0170182F1695117007
:107D9000E0910601F0910701AF014F5F5F4FBA011B
:107DA00020E030E00023B1F4112339F49491809164
:107DB000C00085FFFCCF9093C6002F5F3F4FCB01E3
:107DC0000196FA012A173B0780F4BC014F5F5F4F11
:107DD000002351F3F999FECFF2BDE1BDF89A90B5B9
:107DE0008091C00085FFFCCFE6CF709307016093C0
:107DF00006018091C00085FDE5CE8091C00085FF21
:107E0000F8CFE0CE81E00E94C73C67CE0E94763C6E
:107E1000803209F08CCE8091C00085FFFCCFF092BB
:107E2000C6008091C00085FFFCCFE092C600809123
:107E3000C00085FFFCCFD092C6008091C00085FFB6
:107E4000FCCFC092C6008091C00085FFFCCFB092ED
:107E5000C60043CE80E10E94C73C3FCE0E94763CE4
:107E60000E94763C182F0E94763C112309F483C0AF
:107E7000113009F484C08FE00E94C73C2ECE80915F
:107E80000C02816080930C02F1CE80910C02816023
:107E900080930C0265CF809107018823880F880B9F
:107EA0008A2180930B028091060190910701880F2F
:107EB000991F90930701809306018091080280FF2B
:107EC00009C08091080290910902019690930902DD
:107ED00080930802F894F999FECF1127E0910601EA
:107EE000F0910701C8E0D1E0809108029091090269
:107EF000103091F40091570001700130D9F303E084
:107F000000935700E8950091570001700130D9F3B4
:107F100001E100935700E8950990199000915700EE
:107F200001700130D9F301E000935700E8951395F3
:107F3000103498F011270091570001700130D9F3E7
:107F400005E000935700E89500915700017001305B
:107F5000D9F301E100935700E8953296029709F0B2
:107F6000C7CF103011F00296E5CF11248091C000E8
:107F700085FFC5CEC8CE8EE10E94C73CAECD85E957
:0C7F80000E94C73CAACDF894FFCF8000FF
:00000001FF
