:100000000C9490000C94FC120C94D5120C94B80033
:100010000C94B8000C94B8000C94A11D0C94B8007A
:100020000C94B8000C94B8000C94B8000C94B80070
:100030000C94B8000C94B8000C94B8000C94B80060
:100040000C948B120C94B8000C9449130C94231349
:100050000C94B8000C94B8000C94B8000C94B80040
:100060000C94B8000C94B800036EDB363D9A999955
:10007000993DABAAAA2A3E000000803F072C7AA532
:10008000BA6CC590DA3B9365FC8BBC53F810FD3C11
:100090005692834DBD879D3AB63DCBC9BF5BBE73BB
:1000A000DA0FC93F05A84CCDB2D44EB93836A902F3
:1000B0000C50B9918688083CA6AAAA2ABE00000066
:1000C000803F0000000023002600290000000000FF
:1000D000240027002A00000000080002010000039D
:1000E00004070000000000000000010204081020C6
:1000F00040800102040810200102040810200000C2
:100100000000250028002B00040404040404040457
:10011000020202020202030303030303A41D591F88
:1001200011241FBECFEFD8E0DEBFCDBF12E0A0E0AC
:10013000B1E0E0EAF8E402C005900D92A832B10700
:10014000D9F724E0A8E2B2E001C01D92AF34B207B3
:10015000E1F710E0CFE8D0E004C02197FE010E9453
:100160000823CE38D107C9F70E94551E0C944324AA
:100170000C940000EDE8F3E0A089B18982E08C9353
:10018000A485B5851C92A685B78580E18C93108ED9
:10019000A489B58986E08C93A289B3898C9180610A
:1001A0008C93A289B3898C9188608C93A289B3893E
:1001B0008C9180688C930288F389E02D80818F7DFB
:1001C000808308958F929F92AF92BF92CF92DF92D9
:1001D000EF92FF92CF934B01AA24BB24C82DC52ECA
:1001E000D62EE72EFF24BC2DA42F20913D042223E0
:1001F00061F0829E40011124C92D2C9D60011124C3
:10020000BD2D249FF0011124AF2FE0914304E09015
:100210003E04F0903F0430914004E31323C09C015E
:10022000220F331F820F931F8E0D9F1DE0914004FC
:10023000E80FF92FF11DC083E0914104E80FF92F79
:10024000F11DB08320914204820F911DFC01A08317
:10025000CF91FF90EF90DF90CF90BF90AF909F90A5
:100260008F900895880F991F880F991F8E0D9F1DDD
:10027000472F552766277727222349F030E0249F10
:100280007001259FF00C349FF00C11244F2DE80FC6
:10029000F92FF11D4083CACF833081F028F48130DB
:1002A00099F08230A9F008958730A9F08830C9F01C
:1002B0008430B1F4809180008F7D03C080918000F4
:1002C0008F7780938000089584B58F7784BD0895DB
:1002D00084B58F7DFBCF8091B0008F778093B00085
:1002E00008958091B0008F7DF9CF1F93CF93DF9356
:1002F000282F30E0F901EA52FF4F8491F901E651CD
:10030000FF4FD491F901E85FFE4FC491CC23A9F0CF
:10031000162F81110E944C01EC2FF0E0EE0FFF1F11
:10032000E250FF4FA591B4918FB7F894EC91111161
:1003300008C0D095DE23DC938FBFDF91CF911F9152
:100340000895DE2BF8CFCF93DF9390E0FC01E651C8
:10035000FF4F2491885F9E4FFC0184918823C9F050
:1003600090E0880F991FFC01E453FF4FA591B491D1
:10037000FC01E250FF4FC591D49161110DC09FB7B0
:10038000F8948C91209582238C938881282328834C
:100390009FBFDF91CF910895623051F49FB7F894D9
:1003A0003C91822F809583238C93E8812E2BEFCF75
:1003B0008FB7F894EC912E2B2C938FBFEACF8064EB
:1003C00080937C0080917A00806480937A00809191
:1003D0007A0086FDFCCF8091780090917900089595
:1003E0003FB7F8948091DF029091E002A091E10282
:1003F000B091E20226B5A89B05C02F3F19F00196E7
:10040000A11DB11D3FBFBA2FA92F982F8827BC016E
:10041000CD01620F711D811D911D43E0660F771F95
:10042000881F991F4A95D1F708950F931F93CF9373
:10043000DF93CDB7DEB729970FB6F894DEBF0FBEB6
:10044000CDBF0E94F0010091440410914504209119
:10045000460430914704601B710B820B930B6C3286
:1004600071408105910568F3F89480913A04909168
:100470003B049A838983A0913E04B0913F04FD011F
:1004800031968C91898780913604A0914804B0916F
:100490004904882309F42EC11B82AB32B10509F04F
:1004A00072C09BB180914A04982B98879BB180952C
:1004B00089238F838F818C83898587FF02C08885FC
:1004C0008C8358856F8149853C812B8189819A81F4
:1004D0005BB9262F3BB900C046FD252F6BB900C084
:1004E0005BB9362F2BB900C045FD352F6BB900C065
:1004F0005BB9262F3BB900C044FD252F6BB900C066
:100500005BB9362F2BB900C043FD352F6BB900C046
:100510005BB9262F3BB900C042FD252F6BB900C047
:100520005BB9362F2BB900C041FD352F6BB900C028
:100530005BB9262F3BB900C040FD252F6BB9019751
:100540005BB9362F2BB9419147FD352F6BB901F6B9
:1005500049873C832B839A83898378940E94F00196
:100560006093440470934504809346049093470439
:1005700029960FB6F894DEBF0FBECDBFDF91CF91A5
:100580001F910F910895A532B10509F058C095B19A
:1005900080914A04982B988795B1809589238F8301
:1005A0008F818C83898587FF02C088858C835885DD
:1005B0006F8149853C812B8189819A8155B9262F8C
:1005C00035B900C046FD252F65B900C055B9362F95
:1005D00025B900C045FD352F65B900C055B9262F96
:1005E00035B900C044FD252F65B900C055B9362F77
:1005F00025B900C043FD352F65B900C055B9262F78
:1006000035B900C042FD252F65B900C055B9362F58
:1006100025B900C041FD352F65B900C055B9262F59
:1006200035B900C040FD252F65B9019755B9362F62
:1006300025B9419147FD352F65B901F689CF9897C6
:1006400009F08BCF98B180914A04982B988798B184
:10065000809589238F838F818C83898587FF02C052
:1006600088858C8358856F8149853C812B81898160
:100670009A8158B9262F38B900C046FD252F68B990
:1006800000C058B9362F28B900C045FD352F68B9CC
:1006900000C058B9262F38B900C044FD252F68B9CD
:1006A00000C058B9362F28B900C043FD352F68B9AE
:1006B00000C058B9262F38B900C042FD252F68B9AF
:1006C00000C058B9362F28B900C041FD352F68B990
:1006D00000C058B9262F38B900C040FD252F68B991
:1006E000019758B9362F28B9419147FD352F68B980
:1006F00001F62ECF9C9180914A04982B98879C916B
:10070000809589238F838F818E8388E08D835885A0
:100710006F8149853D812E8189819A815C9347FD56
:10072000252F2C93262F3A9531F0441F6C9300C04F
:1007300000C000C0F3CF6C93000038E041910197F6
:1007400069F7B0934904A093480449873D832E83F9
:1007500002CF8F929F92AF92BF92CF92DF92EF9291
:10076000FF924B015C010E94F0016B017C010E9431
:10077000F0016C197D098E099F09683E734081055F
:100780009105A8F321E0821A9108A108B10888EE2A
:10079000C80E83E0D81EE11CF11C81149104A10451
:1007A000B10429F7FF90EF90DF90CF90BF90AF900A
:1007B0009F908F9008952FB7F8946091DB0270910D
:1007C000DC028091DD029091DE022FBF0895089532
:1007D000AF92BF92CF92DF92EF92FF920F931F934F
:1007E000CF93DF936C017B018B01040F151FEB018D
:1007F0005E01AE18BF08C017D10759F06991D60144
:10080000ED91FC910190F081E02DC6010995892BB5
:1008100079F7C501DF91CF911F910F91FF90EF9074
:10082000DF90CF90BF90AF900895FC01538D448D21
:10083000252F30E0842F90E0821B930B541710F08B
:10084000CF96089501970895FC01918D828D981798
:1008500061F0A28DAE0FBF2FB11D5D968C91928D70
:100860009F5F9F73928F90E008958FEF9FEF0895A1
:10087000FC01918D828D981731F0828DE80FF11D6A
:10088000858D90E008958FEF9FEF0895FC01918D85
:10089000228D892F90E0805C9F4F821B91098F737E
:1008A000992708958DE893E00E94460421E0892B62
:1008B00009F420E0822F08950E94520481110C94C3
:1008C0000000089580E090E0892B11F00C945C0406
:1008D0000895FC01A48DA80FB92FB11DA35ABF4FD5
:1008E0002C91848D90E001968F739927848FA6892F
:1008F000B7892C93A089B1898C91837080648C9383
:10090000938D848D981306C00288F389E02D808131
:100910008F7D80830895EF92FF920F931F93CF9363
:10092000DF93EC0181E0888F9B8D8C8D98131AC02A
:10093000E889F989808185FF15C09FB7F894EE8911
:10094000FF896083E889F98980818370806480836E
:100950009FBF81E090E0DF91CF911F910F91FF90B9
:10096000EF900895F62E0B8D10E00F5F1F4F0F7361
:100970001127E02E8C8D8E110CC00FB607FCFACF1C
:10098000E889F989808185FFF5CFCE010E9469044D
:10099000F1CFEB8DEC0FFD2FF11DE35AFF4FF082ED
:1009A0009FB7F8940B8FEA89FB8980818062CFCF53
:1009B000CF93DF93EC01888D8823B9F0AA89BB8996
:1009C000E889F9898C9185FD03C0808186FD0DC081
:1009D0000FB607FCF7CF8C9185FFF2CF808185FFA2
:1009E000EDCFCE010E946904E9CFDF91CF91089548
:1009F00084ED8093BC008091BC0084FDFCCF1092FC
:100A0000680308958091BC0087FF76C08091B9008B
:100A1000887F883249F170F48031F1F030F4882316
:100A200009F467C08830C1F008958831E9F0803258
:100A300061F10895803409F43FC028F4803329F12E
:100A4000883331F10895803559F18835E9F18834DA
:100A500009F052C00C94F804809143038093BB00CA
:100A600084EC8093BC0008959091650380916403A9
:100A70009817B0F5E091650381E08E0F80936503D0
:100A8000F0E0EC5BFC4F8081E9CF80936603E2CF1E
:100A90008093660384EC8093BC00109268030895F1
:100AA000E091650381E08E0F809365038091BB0028
:100AB000F0E0EC5BFC4F80839091650380916403D0
:100AC000981770F284E8CDCFE091650381E08E0F36
:100AD000809365038091BB00F0E0EC5BFC4F80836A
:100AE000809167038111B6CF81E08093420384EA4D
:100AF000D2CF10926603AECF08951F93CF93DF93AA
:100B0000D0918C03182FC0918B03D13220F081E05B
:100B100042C00E940205809168038111FACF82E0F1
:100B200080936803109367038FEF8093660310929E
:100B30006503D0936403EBE6F3E0A4E4B3E080E064
:100B4000D81333C01092430380914303CC0FC82BBA
:100B5000C093430380914203813059F510924203C0
:100B6000809143038093BB0085EC8093BC0084ECB0
:100B70008093BC00809168038230E9F08091660325
:100B80008F3FE1F0809166038032D1F0809166035F
:100B90008033C1F084E010926A0310928C031092AB
:100BA0006903DF91CF911F91089591919D938F5F7C
:100BB000C7CF84EEDDCF0E940205DCCF80E0EBCF13
:100BC00082E0E9CF83E0E7CF613240F480916803AF
:100BD000843031F46093BD0280E0089581E008958F
:100BE00082E008951092680381E080936703109279
:100BF000420361E082E10E94750161E083E10E94AD
:100C00007501E9EBF0E080818E7F808380818D7FAC
:100C1000808382E08093B80084E48093BC000895D0
:100C20000895E091BC028091BB02E81730F4F0E037
:100C3000E556FD4F808190E008958FEF9FEF089576
:100C40009091BC028091BB022FEF3FEF981748F4C0
:100C5000E92FF0E0E556FD4F208130E09F5F909353
:100C6000BC02C90108958091BB029091BC02891B0E
:100C7000990B0895CF92DF92EF92FF920F931F93FB
:100C8000CF93DF937C01CB018A012091690322235A
:100C900089F0EB016B01C40ED51ECC15DD0569F0A2
:100CA0006991D701ED91FC910190F081E02DC70190
:100CB0000995F3CF642F0E94E405C801DF91CF911D
:100CC0001F910F91FF90EF90DF90CF900895CF93F9
:100CD000DF931F92CDB7DEB769832091690322238A
:100CE000F9F020918C03203258F021E030E0FC0133
:100CF0003383228390E080E00F90DF91CF910895BD
:100D000080916A03E82FF0E0E559FC4F99819083C8
:100D10008F5F80936A0380938C0381E090E0ECCF37
:100D200061E0CE0101960E94E405F7CFCF93DF93F7
:100D3000EA0191E09093690380938B0310926A0318
:100D400010928C038AE294E00E94670668818AE22E
:100D500094E00E94670681E0DF91CF910C947D05BD
:100D600090E080E00895E091EB02F091EC02808148
:100D7000811107C08FEF9FEF9093D7028093D60227
:100D80000895E091EB02F091EC020580F681E02DF0
:100D90000680F781E02D82819381EECF0F931F9320
:100DA0000E94DB0300919202109193022091940221
:100DB00030919502601B710B820B930B69327105A8
:100DC0008105910530F49091910280911101981361
:100DD00007C081E020918F0230919002232B09F40B
:100DE00080E01F910F9108950F931F93CF93DF938E
:100DF000F894C0918400D0918500D0938E02C09366
:100E00008D02E9EDF0E08491EDEEF0E00491EBE08D
:100E1000F1E014911123A1F081110E944C01E12F06
:100E2000F0E0EE0FFF1FEE53FF4FA591B491EC9150
:100E3000E02381E090E011F490E080E0892B19F448
:100E400081E080938C020E94DB030091920210915A
:100E500093022091940230919502601B710B820BDA
:100E6000930B603171058105910540F190919102DC
:100E700080911101981714F510928500109284004A
:100E800010928B0210928A021092900210928F029E
:100E90001092890210929102109288020E94DB0344
:100EA00060939202709393028093940290939502C0
:100EB0007894DF91CF911F910F91089520918A022C
:100EC00030918B02D0938B02C0938A0280918F0263
:100ED00090919002833091056CF180FF2BC0C21B72
:100EE000D30B23E0CC0FDD1F2A95E1F72091890277
:100EF000C93E33E0D30724F141E050E0022E01C0A7
:100F0000440F0A94EAF730918802342B3093880218
:100F10002F5F2093890228306CF02091910230914C
:100F200011012317ACF42F5F2093910210928902D4
:100F30001092880201969093900280938F02AECF18
:100F4000CC32D1402CF71092910210928C02E0CF5B
:100F500010928C02EBCF61E087E00E94A30160E079
:100F600087E00C947501CF92DF92EF92FF920F937E
:100F70001F93CF93DF93EC018B016A0179010E94EB
:100F8000AB078091380490913904C817D90700F550
:100F9000A601DD0C660B770B762F652F542F4427A7
:100FA000C701FF0CAA0BBB0B842B952BA62BB72BD1
:100FB000012E000C220B330B980111270027AC01E6
:100FC000BD01402B512B622B732BCE010E94E200FE
:100FD00080913E0490913F04892B11F00E941502EC
:100FE00084E592E00197F1F7DF91CF911F910F9186
:100FF000FF90EF90DF90CF900895CF92DF92EF9225
:10100000FF9260910F0170911001072E000C880B68
:10101000990B0E94E92026ED35EE44E158E30E9449
:10102000F92120910B0130910C0140910D0150915B
:101030000E010E943F206B017C01609109017091BB
:101040000A01072E000C880B990B0E94E9209B01D6
:10105000AC01C701B6010E943F2060930501709367
:1010600006018093070190930801FF90EF90DF90B5
:10107000CF900895CF93DF931F92CDB7DEB76983EA
:10108000AE014F5F5F4F682F8BE60E9496060F9070
:10109000DF91CF910895CF93DF931F92CDB7DEB745
:1010A0006983AE014F5F5F4F682F8CE10E94960607
:1010B0000F90DF91CF910895609184027091850225
:1010C00080918602909187020E94E920209105017B
:1010D0003091060140910701509108010E94F921C9
:1010E0000E94B12088279927861B970B08950F939C
:1010F0001F93CF93DF93C82F8A01D22F81E0809373
:101100006903C0938B0310926A0310928C038AE2E6
:1011100094E00E94670680E00E947D05809168034C
:10112000811146C081E080936803809367039FEF3D
:1011300090936603109265039D0F909364038093D0
:10114000430380914303CC0FC82BC093430380918A
:101150004203813081F510924203809143038093D2
:10116000BB0084EC8093BC0080916803813029F13E
:10117000809165038D1710F4D0916503A4E4B3E06A
:10118000EBE9F2E0C0E0CD131BC01092BC02C093AB
:10119000BB02D0E08091BC02C817B1F08AE294E0B3
:1011A0000E942006F801ED0FF11D8083DF5FF2CF72
:1011B0000E940205B3CF84EED5CF0E940205D4CFA2
:1011C0008D918193CF5FDFCF8D2FDF91CF911F91D5
:1011D0000F910895CF93DF931F92CDB7DEB7198299
:1011E00021E0AE014F5F5F4F6FE28BE60E94770810
:1011F00089818F710F90DF91CF9108950F931F9385
:10120000CF93DF9300D000D000D0CDB7DEB78C01F4
:1012100026E0AE014F5F5F4F61E88CE10E947708E6
:10122000898190E0982F88272A81820F911DF801EB
:10123000918380838B8190E0982F88272C81820F67
:10124000911D938382838D8190E0982F88272E8132
:10125000820F911D9583848326960FB6F894DEBF86
:101260000FBECDBFDF91CF911F910F910895CF9306
:10127000DF931F92CDB7DEB7198221E0AE014F5F39
:101280005F4F60E08CE10E94770889818F730F9037
:10129000DF91CF91089530E020E050E040E070E031
:1012A00060E084E090E00E94B30730E020E050E08E
:1012B00040E070E060E085E090E00C94B307CF93ED
:1012C000DF93FC0101900020E9F73197AF01481B43
:1012D000590BBC018DE893E00E94E803EC0142E069
:1012E00050E060E471E08DE893E00E94E8038C0F29
:1012F0009D1FDF91CF910895259A2D9A2FE788E3BE
:1013000091E0215080409040E1F700C000001D9A1C
:10131000F5CF00E010E08091980281110CC080911F
:101320001A03823010F00E9457150115110599F328
:101330000E945C04F0CF0FB6F8940F92E091FB028C
:10134000F091FC02C681D781CE0102960E94C9139A
:101350008091410381508093410380919802815094
:10136000809398020F900FBE8F89988D0E949918D4
:10137000CE010E949918CFCFCF93DF93CDB7DEB7C0
:1013800068970FB6F894DEBF0FBECDBF83E491E03F
:101390000E945F092091790230917A023A83298371
:1013A00030937202209371028091750290917602BF
:1013B0009C838B8390936E0280936D0220917702C1
:1013C000309178023E832D8330936A022093690224
:1013D0000E94F0014B015C01C0906502D090660252
:1013E000E0906702F0906802DC01CB018C199D0946
:1013F000AE09BF09883C9105A105B10568F4C60195
:1014000088539F4F881999098330910528F0880FD8
:10141000991F04970197F1F760E084E00E9475013D
:1014200082E00E94DF0198878F8381E00E94DF01C4
:101430003C0183E00E94DF012C0161E088E00E9412
:1014400075018CE891E00197F1F782E00E94DF01DD
:101450008C012F813885021B130B10937A020093A5
:10146000790281E00E94DF018619970998878F83AE
:10147000909378028093770283E00E94DF018419C1
:1014800095093C0134E1631A71087092760260920A
:10149000750260E088E00E947501C501B4010E94F8
:1014A000E7204B015C01C701B6010E94E7209B01C8
:1014B000AC01C501B4010E94B21F6B017C01C09256
:1014C0000101D0920201E0920301F09204010E9416
:1014D000F0016093650270936602809367029093B7
:1014E000680220E030E048E453E4C701B6010E94FE
:1014F0003A2087FF0CC080E090E0A8E4B3E480933A
:10150000010190930201A0930301B09304012FE61F
:1015100032E143E85AE36091010170910201809148
:101520000301909104010E94F9216B017C01C0929A
:101530000101D0920201E0920301F092040117FF31
:1015400004C010927A02109279028F81988597FFD9
:1015500004C0109278021092770277FE04C01092B5
:101560007602109275022AE037ED43EA5BE3C70189
:10157000B6010E94F9214B015C0120E030E040E01F
:101580005EE30E94F42118160CF44FC2A7019601E5
:1015900060E070E088E493E40E94B21F2AE037ED37
:1015A00043EA5BE30E94F9216B017C0120E030E01B
:1015B00040E052E4C501B4010E94F9214B015C01F5
:1015C0000091790210917A02B801012E000C880B6B
:1015D000990B0E94E9206F83788789879A876091A9
:1015E000630270916402072E000C880B990B0E9415
:1015F000E920A70196010E94F9212B013C012F81CE
:10160000388549855A85C501B4010E94F9219B019D
:10161000AC01C301B2010E94B31F0E94B1206B8BC9
:101620007C8B8D8B9E8B2B893C893093640220931D
:1016300063022090750230907602B101032C000CF9
:10164000880B990B0E94E9206B877C878D879E878A
:101650006091610270916202072E000C880B990B59
:101660000E94E920A70196010E94F9212B013C016B
:101670002B853C854D855E85C501B4010E94F9210D
:101680009B01AC01C301B2010E94B31F0E94B120B3
:101690002B017093620260936102809177029091B6
:1016A0007802988F8F8BBC01990F880B990B0E9441
:1016B000E9206F87788B898B9A8B60915F0270919C
:1016C0006002072E000C880B990B0E94E920A701ED
:1016D00096010E94F9216B017C012F853889498987
:1016E0005A89C501B4010E94F9219B01AC01C701CF
:1016F000B6010E94B31F0E94B120709360026093F4
:101700005F024B895C8985E0559547958A95E1F79D
:10171000509374024093730295E0559447949A95C0
:10172000E1F75092700240926F023B0125E0759400
:1017300067942A95E1F770926C0260926B0230E038
:10174000053011050CF430E121E08F89988D059763
:101750000CF020E0322B20E095E0291631040CF447
:1017600024E0232B09F02064093E13400CF069C1EA
:1017700030E0232B30E089EE281683E038060CF0A9
:1017800038E0232B8F89988D893E93400CF05BC104
:101790001B8A9B89922B9B8B90719F8B2B8924FD9D
:1017A00065C0BA01550F880B990B0E94E9206B01A7
:1017B0007C0120E030E040E05FE30E94F92120E07E
:1017C00030E040E251E40E94B21F4B015C012F81E6
:1017D000388549855A850E94F421181694F4298188
:1017E0003A81B901330F880B990B0E94E9209B01C4
:1017F000AC01C501B4010E94F421181614F430E1C3
:101800003F8B8B899F89892B8B8B80718F8B2B8949
:1018100024FD2CC0A7019601C701B6010E94B31F89
:1018200020E030E040E251E40E94B31F6B017C01F4
:101830002F81388549855A850E943A2087FF12C03A
:1018400029813A81B901330F880B990B0E94E92055
:101850009B01AC01C701B6010E943A2087FF02C07C
:1018600030E23F8B8B899F89892B8B8B2B8924704E
:1018700029833B8932FD65C0B201550C880B990B59
:101880000E94E9206B017C0120E030E040E05FE352
:101890000E94F92120E030E040E251E40E94B21FB2
:1018A0004B015C012B853C854D855E850E94F421B2
:1018B000181694F42B813C81B901330F880B990BD6
:1018C0000E94E9209B01AC01C501B4010E94F421F2
:1018D000181614F434E039838B899981892B8B8B0A
:1018E000847089832B8922FD2CC0A7019601C70132
:1018F000B6010E94B31F20E030E040E251E40E94B4
:10190000B31F6B017C012B853C854D855E850E9454
:101910003A2087FF12C02B813C81B901330F880B1D
:10192000990B0E94E9209B01AC01C701B6010E94FE
:101930003A2087FF02C038E039838B899981892B4F
:101940008B8B2B89217029833B8930FD66C0B301C5
:10195000770C880B990B0E94E9206B017C0120E039
:1019600030E040E05FE30E94F92120E030E040E217
:1019700051E40E94B21F4B015C012F8538894989CF
:101980005A890E94F42118169CF42D813E81B901D8
:10199000330F880B990B0E94E9209B01AC0181E079
:1019A0008983C501B4010E94F42118160CF0198234
:1019B0009B892981922B9B8B917099833B8930FD68
:1019C0002CC0A7019601C701B6010E94B31F20E0F9
:1019D00030E040E251E40E94B31F6B017C012F858F
:1019E000388949895A890E943A2087FF12C02D817F
:1019F0003E81B901330F880B990B0E94E9209B01AE
:101A0000AC01C701B6010E943A2087FF02C032E054
:101A100039838B899981892B8B8B2B8920937B022E
:101A200083E090E00E94CA1BB5CCC12CD12C30E6DB
:101A3000E32E3FE3F32E812C912CA12C4EE3B42E08
:101A4000B5CD30E296CE82E08B8BA3CE0E94DB0335
:101A50004B015C0100915D0210915E020E94DB036C
:101A600080E591E00E945F0966246394712C92E006
:101A7000E92EF12C23E0C22ED12C0E94DB03209111
:101A80005D0230915E0221153105E9F0213031050A
:101A900019F1C0915D02D0915E020C171D0769F02B
:101AA000C130D10509F43FC098F1C230D10509F425
:101AB00049C0C330D10509F44DC08CE090E00E94CC
:101AC000CA1B8E01DACF80917B02837311F370926F
:101AD0005E0260925D02DDCF681979098A099B096F
:101AE000683E734081059105A0F280917B02982F9A
:101AF000937039F0D0925E02C0925D0210927B0228
:101B0000C8CF807331F2F0925E02E0925D02F6CFB0
:101B10008DE591E00E945F090E945C0890935C0251
:101B200080935B02CACF8BE791E00E945F090E941D
:101B30005C0890935C0280935B020E94DB034B0184
:101B40005C01BBCF82E991E00E945F090E945C08C2
:101B50008396E4CF8FEA91E00E945F090E945C08BF
:101B60008197DCCFC0915D02D0915E02C817D90782
:101B700011F00E944B0980914E02813009F05EC045
:101B80000E945C08BC01990F880B990B0E94E92008
:101B90009B01AC0160E070E084EB92E40E94B21F14
:101BA00020ED3FE049E450E40E94F92120E030E0DC
:101BB00044E353E40E943F200E9466224B015C01F3
:101BC00060914602709147028091480290914902CB
:101BD0000E94E9206B017C0120E030E040EF51E4FD
:101BE000C501B4010E94F9210E94B120072E000C0A
:101BF000880B990B0E94E9202EE431EC4BE658EC5F
:101C00000E94F9219B01AC01C701B6010E94B21FDD
:101C10000E94B1200E94E92029E43AE845E35BE311
:101C20000E94F9210E94B1206093460270934702FE
:101C3000809348029093490210924E0280918C0248
:101C4000882329F00E94CE06811110928C021091F7
:101C50000001111157C080918C02811153C00E9464
:101C6000EA08082F10170CF04DC026E045E552E0B9
:101C700068EA8BE60E94770880915702909158029B
:101C80002091510230915202821B930B092E000CBD
:101C9000AA0BBB0B4091800250918102609182029D
:101CA00070918302840F951FA61FB71F8093800237
:101CB00090938102A0938202B09383028091590293
:101CC00090915A022091530230915402821B930B3F
:101CD000092E000CAA0BBB0B409184025091850287
:101CE0006091860270918702840F951FA61FB71F0F
:101CF0008093840290938502A0938602B09387021A
:101D00001F5FB0CF0E945C0820915B0230915C02A3
:101D1000281B390B37FF1AC030E020E050E040E0CC
:101D200064E670E084E090E00E94B30730E020E0D9
:101D300050E040E064E670E085E090E00E94B30788
:101D400086E090E00E94CA1BCE010CCF232B89F0C5
:101D500030E020E044E650E070E060E084E090E0B5
:101D60000E94B30730E020E044E650E070E060E01D
:101D7000E3CF0E944B09E4CF4F925F926F927F9224
:101D80008F929F92AF92BF92CF92DF92EF92FF928B
:101D90000F931F93CF93DF93CDB7DEB72C970FB67A
:101DA000F894DEBF0FBECDBF1092BC021092BB02F2
:101DB00010926A0310928C030E94F20560E182E2A5
:101DC0000E943A086FE080E20E943A0861E080E0F9
:101DD0000E94A30161E081E00E94A30161E086E02E
:101DE0000E94A30160E086E00E94750161E085E049
:101DF0000E94A30160E085E00E94750161E088E037
:101E00000E94A30160E088E00E94750161E084E027
:101E10000E94A30160E084E00E94750162E087E017
:101E20000E94A3010E94BA0062E083E00E94A30125
:101E300061E08AE00E94A30160E08AE00E947501EF
:101E400061E08DE00E94A30161E08DE00E947501D8
:101E500061E08CE00E94A30161E08CE00E947501CA
:101E600061E08BE00E94A30161E08BE00E947501BC
:101E70008CEF93E00E94691F80932C028DEF93E01A
:101E80000E94691F80932D028EEF93E00E94691FCC
:101E900080932E028FEF93E00E94691F80932F02A0
:101EA000C0902C02D0902D02E0902E02F0902F02D4
:101EB0002AE939E949E55FE3C701B6010E94F42147
:101EC00087FD12C023E333E343E95FE3C701B601B3
:101ED0000E943A20181644F0C0920B01D0920C01D7
:101EE000E0920D01F0920E010E94AB0710E000E0BD
:101EF00080913804909139040817190730F440E0B4
:101F000050E0BA01C8010E94E2000F5F1F4F063087
:101F1000110571F780913E0490913F04892B11F0D7
:101F20000E94150284E592E00197F1F70E94AB0749
:101F300060E080E00E94A3010E94BA00E99887EE69
:101F400093E090931501809314011092800083E038
:101F50008093810010926F0062E00E94A3011092B2
:101F60008C021092900210928F0210928B021092AB
:101F70008A0210929202109293021092940210928E
:101F8000950210928902109288021092910284E0C8
:101F90008093110184EF96E09093150180931401D2
:101FA00080916900837F846080936900E99A0E9430
:101FB000CE0668EE73E080E090E00E94A9031092E4
:101FC000BC021092BB0210926A0310928C030E9412
:101FD000F20581E08093000160E182E20E943A080C
:101FE00064E58EE20E943A086FE080E20E943A08BF
:101FF00060E484E20E943A0860E08AE20E944B08B2
:1020000063E08CE20E944B0860E48DE20E944B0882
:1020100060E48EE20E944B0864E189E00E944B0874
:1020200069E08AE20E944B0864E589E00E944B085F
:10203000198221E0AE014F5F5F4F60E28BE60E94A4
:10204000770869816F73606880E20E943A088CE7C4
:1020500091E090930A01809309010E94FD0760E2DC
:1020600083E20E943A0880ED97E0909310018093FC
:102070000F010E94FD0768EC70E080E090E00E9494
:10208000A90319821A821B821C821D821E821F8252
:10209000188619861A861B861C8619EE0E94EA0885
:1020A000843110F41150D1F744E1F42E6E018DE02B
:1020B000C80ED11C26E045E552E068EA8BE60E9496
:1020C000770845E552E08E010F5F1F4FD8018D90D4
:1020D0009D90AD90BD908D01FA0181919191AF01DC
:1020E0009D0124503109092E000CAA0BBB0B880D51
:1020F000991DAA1DBB1DF90180839183A283B3831F
:102100000C151D0519F7FA94F110D4CF69817A8165
:102110008B819C8124E1C22ED12CE12CF12CA701D2
:1021200096010E94711F3093500220934F026D81DF
:102130007E818F819885A70196010E94711F30933F
:1021400052022093510269857A858B859C85A7016F
:1021500096010E94711F30935402209353021982FA
:102160001A821B821C821D821E821F82188619867B
:102170001A861B861C8639EEF32E0E94370984319D
:1021800018F4FA94F110F9CFB4E1FB2E86E392E053
:102190000E94FE0826E332E0FE0131968190919084
:1021A000A190B190D9018D919D919D01AF014450B5
:1021B0005109092E000CAA0BBB0B880E991EAA1EF2
:1021C000BB1EDA018D929D92AD92BC921397E017DF
:1021D000F10721F7FA94F110D9CF69817A818B81C7
:1021E0009C81A4E14A2E512C612C712CA3019201F7
:1021F0000E94711F490130933102209330026D819A
:102200007E818F819885A30192010E94711F6901CF
:10221000309333022093320269857A858B859C85C1
:10222000A30192010E94711F309335022093340262
:102230000E943709082F10E0101734F485E592E06A
:102240000E94FE081F5FF8CF0E94EA08082F10E0E6
:1022500010174CF426E045E552E068EA8BE60E9450
:1022600077081F5FF5CFB6010D2C000C880B990B7A
:102270000E94E92020E030E040E858E30E94F92184
:102280000E941F2090582EEA37ED4AE556E30E943F
:102290003F200E94B12060937C0270937D02809366
:1022A0007E0290937F029092370280923602D09203
:1022B0003902C092380210924202109243021092E8
:1022C0004402109245021092460210924702109268
:1022D00048021092490210928002109281021092DC
:1022E00082021092830210924A0210924B021092C4
:1022F0004C0210924D0210928402109285021092AC
:1023000086021092870210924E0262E082E00E94E2
:10231000A301109200010E94F001AB01BC01809169
:10232000650290916602A0916702B09168028A01ED
:102330009B01081B190B2A0B3B0B083C11052105BF
:10234000310560F488539F4F841B950B83309105B2
:1023500028F0880F991F04970197F1F760E084E057
:102360000E94750182E00E94DF016C0181E00E9401
:10237000DF017C0183E00E94DF018C0161E088E0E5
:102380000E9475018CE891E00197F1F782E00E94CC
:10239000DF018C199D096C0190937A028093790278
:1023A00081E00E94DF018E199F097C0190937802E1
:1023B0008093770283E00E94DF01801B910B8C01E8
:1023C00004511109109376020093750260E088E0D1
:1023D0000E9475010E94F00160936502709366028D
:1023E0008093670290936802D7FE04C010927A022D
:1023F00010927902F7FE04C01092780210927702D0
:1024000017FF04C010927602109275024091790273
:1024100050917A025093720240937102209175029A
:102420003091760230936E0220936D028091770294
:102430009091780290936A028093690265E0440F5C
:10244000551F6A95E1F7509364024093630275E06B
:10245000220F331F7A95E1F73093620220936102D5
:10246000E5E0880F991FEA95E1F790936002809369
:102470005F020E94F0016093650270936602809390
:1024800067029093680200E412E023E040E850E025
:102490006BEC71E086E29DE00E94671A0EE312E0A9
:1024A00022E040E850E06EED71E082EB9DE00E949A
:1024B000671A0CE312E023E040E850E065E072E0C8
:1024C0008CEB99E00E94671A10927B0285E192E002
:1024D0000E945F090E945C0890935C0280935B02FB
:1024E00010925E0210925D022C960FB6F894DEBF39
:1024F0000FBECDBFDF91CF911F910F91FF90EF9055
:10250000DF90CF90BF90AF909F908F907F906F9013
:102510005F904F9008951F920F920FB60F92112463
:102520002F933F938F939F93AF93BF938091DB0241
:102530009091DC02A091DD02B091DE023091DA02CE
:1025400026E0230F2D3758F50296A11DB11D2093CB
:10255000DA028093DB029093DC02A093DD02B09359
:10256000DE028091DF029091E002A091E102B09141
:10257000E2020196A11DB11D8093DF029093E0025B
:10258000A093E102B093E202BF91AF919F918F912E
:102590003F912F910F900FBE0F901F90189529E833
:1025A000230F0396A11DB11DD2CF1F920F920FB61C
:1025B0000F9211242F933F934F935F936F937F93C9
:1025C0008F939F93AF93BF93EF93FF93E091140189
:1025D000F09115010995FF91EF91BF91AF919F91F6
:1025E0008F917F916F915F914F913F912F910F90BC
:1025F0000FBE0F901F9018951F920F920FB60F925B
:1026000011242F933F934F935F936F937F938F93F7
:102610009F93AF93BF93EF93FF93E0911201F091DB
:1026200013010995FF91EF91BF91AF919F918F9108
:102630007F916F915F914F913F912F910F900FBEBE
:102640000F901F9018951F920F920FB60F921124A2
:102650002F933F934F935F936F937F938F939F93AA
:10266000AF93BF93EF93FF938DE893E00E946904CB
:10267000FF91EF91BF91AF919F918F917F916F915A
:102680005F914F913F912F910F900FBE0F901F9030
:1026900018951F920F920FB60F9211242F938F93BC
:1026A0009F93EF93FF93E0919D03F0919E038081B0
:1026B000E091A303F091A40382FD1BC0908180915F
:1026C000A6038F5F8F732091A703821741F0E091DB
:1026D000A603F0E0E357FC4F958F8093A603FF918C
:1026E000EF919F918F912F910F900FBE0F901F90A0
:1026F00018958081F4CFFC01DB010FB6F8940F929E
:102700004091E6025091E7022D913C9111972F3FA5
:102710003207E1F0818192816091E8027081761741
:1027200019F048175907C0F4481B590B42175307B3
:1027300088F4241B350B2D933C938091E802808311
:102740008091E6029091E7029283818380E00F906E
:102750000FBE08951D921C9281E0F9CF0FB6F89438
:102760000F928091E6029091E7020F900FBE0895BC
:102770008091E3028F5F8093E30208950FB6F8948F
:102780000F92FC01928D0F900FBE81E0911180E0BD
:102790000895CF93DF93FC01A085B1858281938159
:1027A00024813581EC013D832C83C481D5819B83B9
:1027B0008A8311968D919C9112978E179F0721F411
:1027C0001296DC93CE931197118610868C918150CE
:1027D0008C938C91DF91CF910895CF93DF939C01DF
:1027E000FB01DC011196CD91DC91D383C2838C81F6
:1027F0009D81958384838C819D81DC0113967C93DC
:102800006E9312977D836C8331872087F9018081D5
:102810008F5F8083DF91CF9108950F931F93CF93A4
:10282000DF93DC011596ED91FC91C681D7818E0175
:10283000045F1F4FC8010E94C9138091E3028111F8
:1028400025C00A501109C8010E94C9138E899091B0
:102850003E03981710F480933E03B9E08B9FC001AC
:102860001124B801865E9C4F0E94ED13E09128026E
:10287000F09129029E898689891760F481E080930E
:102880009702DF91CF911F910F910895B8018FEFBB
:1028900092E0EACF80E0F5CFEF92FF920F931F9383
:1028A000CF93DF93EC010FB6F8940F921E8D7C014D
:1028B00081E1E80EF11C01E01116D4F08FEF8E8F4C
:1028C0000F900FBE0FB6F8940F921D8D7E0188E019
:1028D000E80EF11C01E01116B4F08FEF8D8F0F9010
:1028E0000FBEDF91CF911F910F91FF90EF90089550
:1028F0008989882319F3C7010E940D14811100935F
:1029000097021150D9CF8885882339F3C7010E94D7
:102910000D148111009397021150DDCF0F931F9377
:10292000CF93DF938C01FB0180819181D8011396B5
:102930008F3F9807F1F4E801AF81B88512968D9129
:102940009C91139793838283EC01FD83EC83B58381
:10295000A4831396FC93EE93129711870087F801D6
:1029600080818F5F8083DF91CF911F910F910895B8
:10297000D90112962D913C911397E9014881598113
:1029800084179507A8F7DACFFC01738362839187D8
:1029900080874617570790F0421B530B8485958517
:1029A00048175907C8F4BF016E5F7F4F8091BE0280
:1029B0009091BF020E948E1480E008954217530741
:1029C00018F46217730740F4BF016E5F7F4F809168
:1029D000C0029091C102EECF81E00895FF920F9363
:1029E0001F93CF93DF93EC01F62E0091E602109136
:1029F000E702809128029091290202960E94C91351
:102A0000CF3FDC0789F4FF2079F0609128027091B4
:102A100029026E5F7F4F8DEE92E0DF91CF911F9183
:102A20000F91FF900C94ED13C00FD11FE09128027D
:102A3000F0912902D383C283609128027091290208
:102A4000C017D10768F48091E9029091EA026E5FA5
:102A50007F4FDF91CF911F910F91FF900C948E14B7
:102A60008091EB029091EC026E5F7F4F0E948E147A
:102A70008091D6029091D702C817D90720F4D0933D
:102A8000D702C093D602DF91CF911F910F91FF9093
:102A90000895FC010396928381832FEF3FEF3483E7
:102AA00023839683858390878783108208950F926E
:102AB0000FB6F8940F921F9211242F923F924F92CB
:102AC0005F926F927F928F929F92AF92BF92CF92BE
:102AD000DF92EF92FF920F931F932F933F934F93A9
:102AE0005F936F937F938F939F93AF93BF93CF9396
:102AF000DF93EF93FF93A0912802B09129020DB6C6
:102B00000D920EB60D928091E302882321F081E0B0
:102B1000809397025FC010929702A0912802B09113
:102B20002902E0912802F09129022D913C91878998
:102B3000908D82179307A8F0809128029091290226
:102B40008091280290912902259A2D9A2FEF83EDEA
:102B500090E3215080409040E1F700C000001D9AB2
:102B6000F5CF20913E0389E001C02150422F50E073
:102B7000849FF001859FF00D1124E65EFC4F90814B
:102B8000992399F3A181B28112960D90BC91A02D49
:102B9000B283A183289FC0011124835E9C4FA81794
:102BA000B90729F412968D919C919283818389E0D3
:102BB000849FF001859FF00D1124E65EFC4F01809B
:102BC000F281E02D868197819093290280932802DB
:102BD00020933E03A0912802B0912902CD91CDBF50
:102BE000DD91DEBFFF91EF91DF91CF91BF91AF916A
:102BF0009F918F917F916F915F914F913F912F9115
:102C00001F910F91FF90EF90DF90CF90BF90AF900A
:102C10009F908F907F906F905F904F903F902F90FC
:102C20001F900F900FBE0F9008958F929F92AF92BA
:102C3000BF92CF92DF92EF92FF920F931F93CF93A9
:102C4000DF930FB6F8940F928091E3028150809346
:102C5000E3028091E302882381F080E00F900FBEB1
:102C6000DF91CF911F910F91FF90EF90DF90CF9068
:102C7000BF90AF909F908F900895809141038823DB
:102C800061F3D0E0C0E029E0F22EEE24E39429C005
:102C9000E0910403F0910503C681D781CE010C9623
:102CA0000E94C9138E010E5F1F4FC8010E94C913F5
:102CB0008E8990913E03981710F480933E038F9D68
:102CC000C0011124B801865E9C4F0E94ED13E09173
:102CD0002802F09129029E898689981710F0E092C7
:102CE00097028091FF028111D3CFCD2B11F00E946A
:102CF000B306E0909602EE2009F451C089E0982EC8
:102D000088248394CC24CA94DC2C8091E302811122
:102D10009DC0C091E602D091E7022196D093E702D0
:102D2000C093E6022097B9F48091EB029091EC02F7
:102D30002091E9023091EA023093EC022093EB02F9
:102D40009093EA028093E9028091E8028F5F80937A
:102D5000E8020E94B3068091D6029091D702F12C2E
:102D6000C817D90708F066C0E0912802F09129023F
:102D7000E6899E9EF0011124E65EFC4F8081823040
:102D800010F0FF24F39480919702811101C0F1109B
:102D900080929702EA94E110B8CF10929602809147
:102DA0009702882309F459CF0E94571581E056CF26
:102DB000E091EB02F091EC020580F681E02D0681B6
:102DC0001781D80112968D919C91C817D90728F4C4
:102DD0009093D7028093D602C7CF5801B2E0AB0ED2
:102DE000B11CC5010E94C913F80184899589892BFA
:102DF00021F0C8010C960E94C913D80156968C91F7
:102E000090913E03981710F480933E03899DC00172
:102E10001124B501865E9C4F0E94ED13E0912802BB
:102E2000F0912902D80156969C918689981710F046
:102E3000FF24F394E091EB02F091EC028081811188
:102E4000B7CFD092D702C092D6028ECF8091960291
:102E50008F5F80939602F12C96CFAF92BF92CF9264
:102E6000DF92EF92FF920F931F93CF93DF9300D0E7
:102E700000D01F92CDB7DEB78C017B011D821C8272
:102E800080E0680128E0C20ED11C0FB6F8940F92C2
:102E9000F801228D938D291708F078C0D28C448DCB
:102EA00041115AC080819181892B11F080E009C0C5
:102EB000E280F380E114F10421F580E0F80113824F
:102EC0001282D394F801D28E9189992321F0C801FE
:102ED00041960E940D1481110E9457150F900FBE4C
:102EE00081E00F900F900F900F900F90DF91CF9196
:102EF0001F910F91FF90EF90DF90CF90BF90AF9018
:102F00000895F70182A1815082A3268991A12917F2
:102F1000A1F28111D2CF5701F2E0AF0EB11CC50171
:102F20000E94C913F70181A1868B24E030E0281BA1
:102F300031093587248790913E03981710F48093C8
:102F40003E03F9E08F9FC0011124B501865E9C4FBE
:102F50000E94ED1381E0B2CF50E0B70184819581EA
:102F60000E943324F801848D24813581820F932FB0
:102F7000911D95838483228133818217930708F4FE
:102F800095CF808191819583848390CF2C813D81E1
:102F9000232B21F40F900FBE80E0A3CF811109C035
:102FA0008091E80289838091E6029091E7029B83F9
:102FB0008A830F900FBE0E94B8130FB6F8940F9239
:102FC000F801858D8F3F09F4158EF801868D8F3FAE
:102FD00009F4168E0F900FBEBE016C5F7F4FCE01BD
:102FE00001960E947B1381112AC00FB6F8940F92AC
:102FF000F801928D838D0F900FBE98131AC0AC808C
:10300000BD806091280270912902645F7F4FC601E4
:103010000E948E1461E0C5010E94EE14C8010E9456
:103020004C140E941516811102C00E94571581E0B0
:103030002CCFC8010E944C140E941516F8CFC8016D
:103040000E944C140E941516A7CFCF93DF9300D097
:1030500000D01F92CDB7DEB79C018091E402909121
:10306000E5020097B9F019827B836A833D832C8344
:1030700020914003BE016F5F7F4F21112091E30239
:103080000E942D170F900F900F900F900F90DF91CF
:10309000CF91089580E0F6CFEF92FF920F931F93A8
:1030A000CF93DF93E091C002F091C1028081811142
:1030B00013C08091BE029091BF029093C102809391
:1030C000C002F093BF02E093BE02DF91CF911F9147
:1030D0000F91FF90EF9008950580F681E02D00811B
:1030E0001181C681D7817E0182E0E80EF11CC70103
:1030F0000E94C913E989FA89CE0109958E8581302C
:1031000089F68C859D85800F911F0817190760F43B
:103110009B838A83D987C887B7018091C002909129
:10312000C1020E948E14BECFB801CE010E942518A4
:10313000B9CFCF93DF93009751F0EC010E94B81301
:10314000CE010E94AA23DF91CF910C941516DF9136
:10315000CF910895CF93DF93CDB7DEB72A970FB6FF
:10316000F894DEBF0FBECDBFE091C002F091C10266
:10317000F08010E000E0FF2029F00580F681E02DCE
:10318000008111810E94B8130E94AE136C018091DE
:10319000990290919A02C816D90608F079C00E9447
:1031A0004C18D0929A02C09299020E941516009172
:1031B000E4021091E5021A86198680E06801B1E107
:1031C000CB0ED11C0FB6F8940F92F801F28CFF20B1
:1031D00009F409C1448D4423C1F050E086819781F0
:1031E000840F951F978386832281338182179307EB
:1031F00020F08081918197838683D80116966D9106
:103200007C91CE0101960E943324FA94F801F28E4B
:103210008085882339F0C80108960E940D14811119
:103220000E9457150F900FBEF980F7FCC0CF0C819C
:103230001D81D8011A968D919C91892B21F0C8018E
:1032400002960E94C9130E94AE136C0180919902EC
:1032500090919A02C816D90610F40E944C18D09288
:103260009A02C0929902B9E0BF1508F4A0CFEF2DE1
:10327000FF0CFF0BE25CF64E0C940823BE19BE193E
:10328000BE19D718E019EF19BE19BE19D718E019E1
:10329000D0929A02C0929902FF2079F1C016D1060D
:1032A000A0F10E941516E091C002F091C1020580C4
:1032B000F681E02DE680F780C70102960E94C913CF
:1032C000D7011E968C911E97813081F41C966D91CA
:1032D0007C91600F711F9801A601C7010E94C41460
:1032E000882321F0B801C7010E942518D701519603
:1032F000ED91FC91C70109955ACFE091BE02F09182
:10330000BF028081BB24B3948111B12CE090E40210
:10331000F090E5020FB6F8940F92F701858D8F3F7C
:1033200009F4158ED7015E968C915E978F3F11F44C
:103330005E961C920F900FBEF701828D811114C012
:103340006091280270912902645F7F4FC701419606
:103350000E94ED13C8018C199D09BB2011F08FEF5D
:103360009FEF6B2D0E94EE14C7010E944C140E9427
:10337000151681111CCF0E94571519CFEA80FB80CA
:10338000F801648575856E0D7F1D9701A601C80142
:103390000E94C414882309F40ACFD8015196ED91F4
:1033A000FC91C8010995F8018685813009F0FFCEAE
:1033B000648575856E0D7F1DC8010E942518F7CEA6
:1033C0006A817B81D8011D967C936E931C976C0D4E
:1033D0007D1D9601A601C8010E94C414E8CEC80153
:1033E0000E949918E4CE29853A85232B19F40F9071
:1033F0000FBEBACE811109C08091E8028E83809100
:10340000E6029091E70298878F830F900FBE0E948B
:10341000B8130FB6F8940F92D8015D968C915D9712
:103420008F3F11F45D961C92F801868D8F3F09F451
:10343000168E0F900FBEBE01675F7F4FCE010696BE
:103440000E947B13811125C0C8010E94BE138823EE
:10345000D1F0E984FA846091280270912902645FB6
:103460007F4FC6010E948E1461E0C7010E94EE14D6
:10347000C8010E944C140E941516811102C00E94BE
:10348000571581E09FCEC8010E944C140E9415166A
:10349000F8CFC8010E944C140E941516C8010E9462
:1034A000BE13882371F360CECF93DF93EC010E94AB
:1034B000B813CE010E940E23EC010E94151620972E
:1034C00011F40E947C09CE01DF91CF9108957F9283
:1034D0008F929F92AF92BF92CF92DF92EF92FF9224
:1034E0000F931F93CF93DF93982EA92E762E872EBE
:1034F0007A01B22ECA010E94541A6C01892B09F478
:1035000028C188E290E00E94541AEC01892B09F44A
:103510001DC1D88ECF8AA70165EA70E0C6010E945E
:103520003C2421E0E21AF108EF89F88DEE0DFF1D31
:10353000672D782DCE0149969B01285F3F4FDB0117
:103540004D91BD01DC014D93CD01AB0141505109BD
:10355000DA014C91442319F06217730781F718A21E
:10356000BE8AB9A21AA21B861A861D8A1C8AD9870E
:10357000C88784E090E08B1991099D878C87DB8B4D
:10358000CA8B1BA21CA21DA21EA21FA291E19083A6
:10359000DF01119782E28C93119723E32C9311970B
:1035A0009C921197AC9211971C92119720E82C9342
:1035B00011971C92119722E02C93119723E02C93E2
:1035C000119724E02C93119725E02C93119726E076
:1035D0002C93119727E02C93119728E02C931197A7
:1035E00029E02C93119720E12C9311979C9311972C
:1035F00092E19C93119793E19C93119794E19C9392
:10360000119795E19C93119796E19C93119797E1FF
:103610009C93119798E19C93119799E19C93119732
:1036200090E29C93119791E29C9311978C93119740
:1036300083E28C9311971C9211971C92119786E24A
:103640008C93119787E28C93119788E28C93119752
:1036500089E28C93119780E38C93119781E38C938B
:10366000B697F983E883F801D183C0830FB6F89445
:103670000F92809141038F5F8093410380912802D4
:1036800090912902892B09F073C0D0932902C0932D
:10369000280280914103813081F58AE193E00E9404
:1036A000491583E293E00E9449158CE293E00E9461
:1036B000491585E393E00E94491581E193E00E945A
:1036C000491588E093E00E9449158FEF92E00E942F
:1036D000491586EF92E00E9449158DEE92E00E9416
:1036E000491581E193E09093EC028093EB0288E02E
:1036F00093E09093EA028093E90280913F038F5F09
:1037000080933F038E8990913E03981710F4809325
:103710003E03F9E08F9FC0011124BE016E5F7F4F11
:10372000865E9C4F0E94ED130F900FBE8091400368
:10373000882351F0E0912802F091290296898E8920
:10374000981710F40E94571581E004C0C6010E942A
:1037500099188FEFDF91CF911F910F91FF90EF900C
:10376000DF90CF90BF90AF909F908F907F90089503
:10377000809140038111C1CFE0912802F09129028C
:1037800096898E89891708F4B8CFD0932902C093FF
:103790002802B3CFCF93DF93EC01892B29F40E9449
:1037A0005715DF91CF9108950E94B81360E0CE01C4
:1037B0000E94EE140E941516882389F3F2CF0F920F
:1037C0000FB6F8940F921F9211242F923F924F92AE
:1037D0005F926F927F928F929F92AF92BF92CF92A1
:1037E000DF92EF92FF920F931F932F933F934F938C
:1037F0005F936F937F938F939F93AF93BF93CF9379
:10380000DF93EF93FF93A0912802B09129020DB6A8
:103810000D920EB60D9213BE8091E3028111F2C09B
:103820008091E6029091E70201969093E7028093DF
:10383000E602009799F52091EB023091EC0240915D
:10384000E9025091EA025093EC024093EB0230936C
:10385000EA022093E9022091E8022F5F2093E80218
:10386000E091EB02F091EC022081211107C02FEFD3
:103870003FEF3093D7022093D60210C0E091EB02C5
:10388000F091EC020580F681E02D0680F781E02DB5
:10389000228133813093D7022093D6022091D60221
:1038A0003091D7028217930710F420E09BC020E0EC
:1038B00019E0E091EB02F091EC023081311107C088
:1038C0008FEF9FEF9093D7028093D6028BC0E09149
:1038D000EB02F091EC020580F681E02D0680F78185
:1038E000E02D428153818417950728F45093D70225
:1038F0004093D60277C0AF014E5F5F4FA285B3857C
:1039000064817581E680F780EB01FD82EC82C681DF
:10391000D7817B836A8311966D917C9112974617AC
:10392000570721F41296DC93CE93119713861286D3
:103930003C9131503C933C91A489B5891097F9F0A2
:1039400066857785E088F188EB01FD82EC82C0898D
:10395000D1897B836A831196ED90FC901297BF0109
:10396000645F7F4FE616F70621F41296DC93CE9340
:103970001197158A148A3C9131503C933C91A68949
:1039800030913E033A1710F4A0933E031A9FD001E2
:103990001124BD01665E7C4F7B01DB011196CD9148
:1039A000DC91D583C4836C817D81778366836C8150
:1039B0007D81DB0113965C934E9312975D834C835C
:1039C000F386E286E70138813F5F3883A0912802C1
:1039D000B0912902468956963C91431708F469CF65
:1039E00021E067CFE0912802F0912902E689D9E031
:1039F000ED9FF0011124E65EFC4F8081823040F0A3
:103A000021E006C0809196028F5F8093960220E0AD
:103A100080919702811103C0222309F467C080912D
:103A2000E302882321F081E0809397025FC0109227
:103A30009702A0912802B0912902E0912802F0910A
:103A400029022D913C918789908D82179307A8F0C8
:103A50008091280290912902809128029091290258
:103A6000259A2D9A2FEF63ED70E32150604070404E
:103A7000E1F700C000001D9AF5CF20913E0389E0D8
:103A800001C02150422F50E0849FF001859FF00D2E
:103A90001124E65EFC4F9081992399F3A181B281B4
:103AA00012960D90BC91A02DB283A183289FC001D6
:103AB0001124835E9C4FA817B90729F412968D91A3
:103AC0009C919283818389E0849FF001859FF00D12
:103AD0001124E65EFC4F0180F281E02D8681978102
:103AE000909329028093280220933E03A0912802FC
:103AF000B0912902CD91CDBFDD91DEBFFF91EF9155
:103B0000DF91CF91BF91AF919F918F917F916F91F5
:103B10005F914F913F912F911F910F91FF90EF90E7
:103B2000DF90CF90BF90AF909F908F907F906F90DD
:103B30005F904F903F902F901F900F900FBE0F906F
:103B400008950E94DF1B18951092900310928F0326
:103B500088EE93E0A0E0B0E080939103909392030D
:103B6000A0939303B093940320E231E030938E034B
:103B700020938D0325EC30E030939A032093990332
:103B800024EC30E030939C0320939B0320EC30E046
:103B900030939E0320939D0321EC30E03093A003EB
:103BA00020939F0322EC30E03093A2032093A103E3
:103BB00026EC30E03093A4032093A3031092A603D5
:103BC0001092A7031092A8031092A90310922D043B
:103BD00010922C0480932E0490932F04A093300411
:103BE000B093310482E391E090932B0480932A04F4
:103BF0001092370410923D04109244041092450430
:103C0000109246041092470481E08093430480930D
:103C100040041092410492E0909342048093360451
:103C200082E190E090933B0480933A040E940E233B
:103C300090933F0480933E04009771F122E1FC01D0
:103C400011922A95E9F786E090E0909339048093E9
:103C5000380487E080933C0480913704882341F046
:103C600061E087E00E94A30160E087E00E947501A7
:103C7000EFE0F1E0E491F0E0EE0FFF1FE250FF4FC4
:103C8000859194919093490480934804E1EFF0E08A
:103C9000E491E0934A04089510923B0410923A0490
:103CA0001092390410923804D4CF789484B582608D
:103CB00084BD84B5816084BD85B5826085BD85B5D0
:103CC000816085BD80916E00816080936E0010924E
:103CD00081008091810082608093810080918100C9
:103CE000816080938100809180008160809380005A
:103CF0008091B10084608093B1008091B0008160B8
:103D00008093B00080917A00846080937A008091E3
:103D10007A00826080937A0080917A008E7F80930F
:103D20007A0080917A00806880937A001092C100B6
:103D30000E94BC0E08ED12E020E040EC50E06BE188
:103D400072E089E899E00E94671A813009F0AFC0FB
:103D50000FB6F8940F928091E4029091E502892BBE
:103D600009F04BC08BEC92E00E94491582EC92E086
:103D70000E9449158BEC92E09093C1028093C0029F
:103D800082EC92E09093BF028093BE0281E590E0C6
:103D90000E94541AEC01009761F14F969983888331
:103DA0008AE08B8F85E08C8F0FB6F8940F92288174
:103DB00039814C8D9B8D499FC0011124B901680F39
:103DC000791F7B836A831A8E3D832C83841B910920
:103DD000820F931F9F838E838FEF8D8F8E8FCE01E7
:103DE00008960E944915CE0141960E9449150F90F0
:103DF0000FBED093E502C093E4020F900FBE8091F6
:103E0000E4029091E502892B09F451C004ED12E01F
:103E100023E045E550E060E272E08AEA98E10E9422
:103E2000671A813009F043C0F8942FEF3FEF3093C9
:103E3000D7022093D602809340031092E70210929B
:103E4000E602A89588E190EC0FB6F894A8958093C7
:103E500060000FBE90936000A0912802B0912902EB
:103E6000CD91CDBFDD91DEBFFF91EF91DF91CF917D
:103E7000BF91AF919F918F917F916F915F914F9182
:103E80003F912F911F910F91FF90EF90DF90CF9076
:103E9000BF90AF909F908F907F906F905F904F906A
:103EA0003F902F901F900F900FBE0F9008950E948B
:103EB0007C0980913E0490913F04009711F00E948C
:103EC000AA2380913C0487FD03C060E00C94A30109
:103ED0000895F999FECF92BD81BDF89A992780B5D2
:103EE0000895052E97FB1EF400940E94881F57FD2D
:103EF00007D00E94901F07FC03D04EF40C94881F3B
:103F000050954095309521953F4F4F4F5F4F089505
:103F100090958095709561957F4F8F4F9F4F089535
:103F2000A1E21A2EAA1BBB1BFD010DC0AA1FBB1FBD
:103F3000EE1FFF1FA217B307E407F50720F0A21B2F
:103F4000B30BE40BF50B661F771F881F991F1A949C
:103F500069F760957095809590959B01AC01BD01C6
:103F6000CF0108955058BB27AA270E94CA1F0C945E
:103F7000BA210E94AC2138F00E94B32120F039F41C
:103F80009F3F19F426F40C946E210EF4E095E7FBA4
:103F90000C946821E92F0E94CB2158F3BA176207CD
:103FA00073078407950720F079F4A6F50C94ED21AA
:103FB0000EF4E0950B2EBA2FA02D0B01B901900144
:103FC0000C01CA01A0011124FF27591B99F0593F88
:103FD00050F4503E68F11A16F040A22F232F342FD0
:103FE0004427585FF3CF469537952795A795F0401E
:103FF0005395C9F77EF41F16BA0B620B730B840B33
:10400000BAF09150A1F0FF0FBB1F661F771F881FEA
:10401000C2F70EC0BA0F621F731F841F48F4879542
:1040200077956795B795F7959E3F08F0B0CF939534
:10403000880F08F09927EE0F9795879508959F931D
:104040009F77EEE389379E0728F4E8E6F0E00E94C8
:1040500098210CC00E9424219058A2EA2AED3FE04A
:1040600049EC5FE30E94CA1F0E94BA210F9007FC2F
:10407000905808950E94442108F481E008950E9418
:1040800053200C94BA210E94B32158F00E94AC2115
:1040900040F029F45F3F29F00C94682151110C94F1
:1040A000EE210C946E210E94CB2168F39923B1F389
:1040B000552391F3951B550BBB27AA27621773074E
:1040C000840738F09F5F5F4F220F331F441FAA1FE2
:1040D000A9F335D00E2E3AF0E0E832D0915050409E
:1040E000E695001CCAF72BD0FE2F29D0660F771F4C
:1040F000881FBB1F261737074807AB07B0E809F032
:10410000BB0B802DBF01FF2793585F4F3AF09E3FB6
:10411000510578F00C9468210C94EE215F3FE4F394
:10412000983ED4F3869577956795B795F7959F5FF9
:10413000C9F7880F911D9695879597F90895E1E045
:10414000660F771F881FBB1F621773078407BA07A4
:1041500020F0621B730B840BBA0BEE1F88F7E095FF
:1041600008950E94B8206894B1110C94EE2108952E
:104170000E94D32188F09F5798F0B92F9927B75103
:10418000B0F0E1F0660F771F881F991F1AF0BA95FB
:10419000C9F714C0B13091F00E94ED21B1E008954B
:1041A0000C94ED21672F782F8827B85F39F0B93F3D
:1041B000CCF3869577956795B395D9F73EF49095AE
:1041C0008095709561957F4F8F4F9F4F0895E8942C
:1041D00009C097FB3EF490958095709561957F4F4F
:1041E0008F4F9F4F9923A9F0F92F96E9BB279395FD
:1041F000F695879577956795B795F111F8CFFAF40D
:10420000BB0F11F460FF1BC06F5F7F4F8F4F9F4F3D
:1042100016C0882311F096E911C0772321F09EE89B
:10422000872F762F05C0662371F096E8862F70E001
:1042300060E02AF09A95660F771F881FDAF7880FDB
:104240009695879597F90895DF93CF931F930F93D2
:104250008B01EC01ECE7F0E00E9471210E94BA2191
:104260009801AE018B01EC0160E070E080E89FE313
:104270000E94B21F0E9474229801AE010F911F91FB
:10428000CF91DF910C940C22990F0008550FAA0BC7
:10429000E0E8FEEF16161706E807F907C0F0121659
:1042A0001306E407F50798F0621B730B840B950B5C
:1042B00039F40A2661F0232B242B252B21F40895B1
:1042C0000A2609F4A140A6958FEF811D811D08954E
:1042D00097F99F6780E870E060E008959FEF80ECB9
:1042E0000895DF93CF931F930F93FF92EF92DF9286
:1042F0007B018C01689406C0DA2EEF010E940C222B
:10430000FE01E894A5912591359145915591A6F32B
:10431000EF010E94CA1FFE019701A801DA9469F714
:10432000DF90EF90FF900F911F91CF91DF91089553
:104330009F938F937F936F93FF93EF939B01AC01B8
:104340000E94F921EF91FF910E9471212F913F91DD
:104350004F915F910C94F92100240A9416161706C8
:1043600018060906089500240A9412161306140666
:1043700005060895092E0394000C11F4882352F0C9
:10438000BB0F40F4BF2B11F460FF04C06F5F7F4F81
:104390008F4F9F4F089557FD9058440F551F59F068
:1043A0005F3F71F04795880F97FB991F61F09F3F22
:1043B00079F087950895121613061406551FF2CF4B
:1043C0004695F1DF08C0161617061806991FF1CF9B
:1043D00086957105610508940895E894BB276627C2
:1043E0007727CB0197F908950E94442108F48FEFB5
:1043F00008950E940C220C94BA210E94AC2138F03E
:104400000E94B32120F0952311F00C9468210C94A4
:104410006E2111240C94EE210E94CB2170F3959F04
:10442000C1F3950F50E0551F629FF001729FBB27AB
:10443000F00DB11D639FAA27F00DB11DAA1F649F47
:104440006627B00DA11D661F829F2227B00DA11DFA
:10445000621F739FB00DA11D621F839FA00D611D80
:10446000221F749F3327A00D611D231F849F600DA1
:10447000211D822F762F6A2F11249F5750409AF0CA
:10448000F1F088234AF0EE0FFF1FBB1F661F771F56
:10449000881F91505040A9F79E3F510580F00C9421
:1044A00068210C94EE215F3FE4F3983ED4F38695A7
:1044B00077956795B795F795E7959F5FC1F7FE2BC1
:1044C000880F911D9695879597F908959F930E945F
:1044D000CB220F9007FCEE5F0C94F42219F416F433
:1044E0000C946E210C94B4220E94D321B8F399232A
:1044F000C9F3B6F39F57550B87FF0E94C2220024D1
:10450000A0E640EA900180585695979528F4805C83
:10451000660F771F881F20F026173707480730F4EB
:10452000621B730B840B202931294A2BA695179403
:104530000794202531254A2758F7660F771F881FD3
:1045400020F026173707480730F4620B730B840BF3
:10455000200D311D411DA09581F7B901842F91587F
:10456000880F9695879508959F3F31F0915020F4DC
:10457000879577956795B795880F911D969587953F
:1045800097F9089591505040660F771F881FD2F712
:1045900008950C946E210E94D321D8F3E894E0E0B2
:1045A000BB279F57F0F02AED3FE049EC06C0EE0F25
:1045B000BB0F661F771F881F28F0B23A6207730788
:1045C000840728F0B25A620B730B840BE3959A951B
:1045D00072F7803830F49A95BB0F661F771F881FDB
:1045E000D2F790480C94B622EF93E0FF07C0A2EAFE
:1045F0002AED3FE049EC5FEB0E94CA1F0E94BA21FE
:104600000F90039401FC9058E4EAF0E00C94982198
:10461000EE0FFF1F0590F491E02D09940F931F9367
:10462000CF93DF938230910510F482E090E0E09127
:104630004D04F0914E0430E020E0B0E0A0E030976F
:1046400099F42115310509F44AC0281B390B24308F
:104650003105D8F58A819B816115710589F1FB01CE
:1046600093838283FE0111C04081518102811381B5
:1046700048175907E0F04817590799F4109761F067
:1046800012960C93129713961C933296CF01DF91DA
:10469000CF911F910F91089500934D0410934E04F4
:1046A000F4CF2115310551F04217530738F0A90115
:1046B000DB019A01BD01DF01F801C1CFEF01F9CFA4
:1046C00090934E0480934D04CDCFFE01E20FF31F73
:1046D000819391932250310939832883D7CF209138
:1046E0004B0430914C04232B41F42091180130915C
:1046F000190130934C0420934B0420911601309102
:1047000017012115310541F42DB73EB740911A012B
:1047100050911B01241B350BE0914B04F0914C048C
:10472000E217F307A0F42E1B3F0B2817390778F088
:10473000AC014E5F5F4F2417350748F04E0F5F1FE7
:1047400050934C0440934B04819391939FCFF0E09E
:10475000E0E09CCFCF93DF930097E9F0FC01329724
:1047600013821282A0914D04B0914E04ED0130E00D
:1047700020E01097A1F420813181820F931F2091B6
:104780004B0430914C042817390709F061C0F093AD
:104790004C04E0934B04DF91CF910895EA01CE17CA
:1047A000DF07E8F54A815B819E0141155105B1F7AC
:1047B000E901FB83EA8349915991C40FD51FEC1796
:1047C000FD0761F4808191810296840F951FE901B4
:1047D00099838883828193819B838A83F0E0E0E0E0
:1047E00012968D919C9113970097B9F52D913C915C
:1047F0001197CD010296820F931F20914B043091A7
:104800004C042817390739F6309751F510924E04A9
:1048100010924D04B0934C04A0934B04BCCFD383AF
:10482000C28340815181840F951FC817D90761F455
:104830004E5F5F4F88819981480F591F5183408394
:104840008A819B81938382832115310509F0B0CF42
:10485000F0934E04E0934D049ECFFD01DC01C0CFE8
:1048600013821282D7CFFB01DC0102C001900D92AE
:1048700041505040D8F70895DC0101C06D9341507C
:104880005040E0F7089510E0CFE8D0E004C0FE010A
:104890000E9408232196C039D107C9F7F894FFCFA9
:1048A000010000803F0000803F5F000000803FFA71
:1048B0000004E703E70300004F048000000000004D
:1048C0008B04E8031504D8044604240438040000CB
:1048D000000067063A06B0061006330620061106E9
:1048E0000D0A0073656E73696E67207461736B00E7
:1048F0004E617669676174654D617A65006D616EC0
:104900007565766572206973206E6F7720447269D1
:1049100076655374726169676874006D616E756560
:10492000766572206973206E6F77204261636B75C4
:1049300070006D616E7565766572206973206E6FAB
:1049400077205475726E696E675269676874006D7E
:10495000616E7565766572206973206E6F7720547D
:1049600075726E696E674C656674006D617A65205C
:1049700067756964616E6365207461736B0044726E
:1049800069766520696E20646972656374696F6E0B
:10499000206F6620696E74656E6465642068656169
:1049A00064696E6700436865636B20666F7220659B
:1049B000646765730073657475700049444C450005
:0849C000546D72205376630070
:00000001FF
